{
  "_format": "hh3-artifact-1",
  "contractName": "PathFinder",
  "sourceName": "contracts/PathFinder.sol",
  "abi": [
    {
      "inputs": [
        {
          "internalType": "address",
          "name": "_targetToken",
          "type": "address"
        },
        {
          "internalType": "uint8",
          "name": "_maxHops",
          "type": "uint8"
        },
        {
          "internalType": "address",
          "name": "_owner",
          "type": "address"
        }
      ],
      "stateMutability": "nonpayable",
      "type": "constructor"
    },
    {
      "inputs": [
        {
          "internalType": "address",
          "name": "owner",
          "type": "address"
        }
      ],
      "name": "OwnableInvalidOwner",
      "type": "error"
    },
    {
      "inputs": [
        {
          "internalType": "address",
          "name": "account",
          "type": "address"
        }
      ],
      "name": "OwnableUnauthorizedAccount",
      "type": "error"
    },
    {
      "anonymous": false,
      "inputs": [
        {
          "indexed": false,
          "internalType": "string",
          "name": "dexName",
          "type": "string"
        },
        {
          "indexed": false,
          "internalType": "address",
          "name": "routerAddress",
          "type": "address"
        }
      ],
      "name": "DexRouterAdded",
      "type": "event"
    },
    {
      "anonymous": false,
      "inputs": [
        {
          "indexed": false,
          "internalType": "string",
          "name": "dexName",
          "type": "string"
        }
      ],
      "name": "DexRouterRemoved",
      "type": "event"
    },
    {
      "anonymous": false,
      "inputs": [
        {
          "indexed": false,
          "internalType": "uint256",
          "name": "newMaxHops",
          "type": "uint256"
        }
      ],
      "name": "MaxHopsUpdated",
      "type": "event"
    },
    {
      "anonymous": false,
      "inputs": [
        {
          "indexed": true,
          "internalType": "address",
          "name": "previousOwner",
          "type": "address"
        },
        {
          "indexed": true,
          "internalType": "address",
          "name": "newOwner",
          "type": "address"
        }
      ],
      "name": "OwnershipTransferred",
      "type": "event"
    },
    {
      "anonymous": false,
      "inputs": [
        {
          "indexed": false,
          "internalType": "address",
          "name": "newTargetToken",
          "type": "address"
        }
      ],
      "name": "TargetTokenUpdated",
      "type": "event"
    },
    {
      "inputs": [
        {
          "internalType": "string",
          "name": "_dexName",
          "type": "string"
        },
        {
          "internalType": "address",
          "name": "_routerAddress",
          "type": "address"
        }
      ],
      "name": "addDexRouter",
      "outputs": [],
      "stateMutability": "nonpayable",
      "type": "function"
    },
    {
      "inputs": [
        {
          "internalType": "string",
          "name": "",
          "type": "string"
        }
      ],
      "name": "dexRouters",
      "outputs": [
        {
          "internalType": "address",
          "name": "",
          "type": "address"
        }
      ],
      "stateMutability": "view",
      "type": "function"
    },
    {
      "inputs": [
        {
          "internalType": "address",
          "name": "tokenIn",
          "type": "address"
        },
        {
          "internalType": "uint256",
          "name": "amountIn",
          "type": "uint256"
        }
      ],
      "name": "findOptimalPath",
      "outputs": [
        {
          "components": [
            {
              "internalType": "address[]",
              "name": "path",
              "type": "address[]"
            },
            {
              "internalType": "bytes",
              "name": "pathBytes",
              "type": "bytes"
            },
            {
              "internalType": "uint256",
              "name": "outputAmount",
              "type": "uint256"
            },
            {
              "internalType": "uint256",
              "name": "inputAmount",
              "type": "uint256"
            },
            {
              "internalType": "address",
              "name": "dexRouter",
              "type": "address"
            }
          ],
          "internalType": "struct Model.SwapPath",
          "name": "bestPath",
          "type": "tuple"
        }
      ],
      "stateMutability": "nonpayable",
      "type": "function"
    },
    {
      "inputs": [],
      "name": "maxHops",
      "outputs": [
        {
          "internalType": "uint8",
          "name": "",
          "type": "uint8"
        }
      ],
      "stateMutability": "view",
      "type": "function"
    },
    {
      "inputs": [],
      "name": "owner",
      "outputs": [
        {
          "internalType": "address",
          "name": "",
          "type": "address"
        }
      ],
      "stateMutability": "view",
      "type": "function"
    },
    {
      "inputs": [
        {
          "internalType": "string",
          "name": "_dexName",
          "type": "string"
        }
      ],
      "name": "removeDexRouter",
      "outputs": [],
      "stateMutability": "nonpayable",
      "type": "function"
    },
    {
      "inputs": [],
      "name": "renounceOwnership",
      "outputs": [],
      "stateMutability": "nonpayable",
      "type": "function"
    },
    {
      "inputs": [
        {
          "internalType": "uint8",
          "name": "_maxHops",
          "type": "uint8"
        }
      ],
      "name": "setMaxHops",
      "outputs": [],
      "stateMutability": "nonpayable",
      "type": "function"
    },
    {
      "inputs": [
        {
          "internalType": "address",
          "name": "_targetToken",
          "type": "address"
        }
      ],
      "name": "setTargetToken",
      "outputs": [],
      "stateMutability": "nonpayable",
      "type": "function"
    },
    {
      "inputs": [
        {
          "internalType": "uint256",
          "name": "",
          "type": "uint256"
        }
      ],
      "name": "supportedDexes",
      "outputs": [
        {
          "internalType": "string",
          "name": "",
          "type": "string"
        }
      ],
      "stateMutability": "view",
      "type": "function"
    },
    {
      "inputs": [],
      "name": "targetToken",
      "outputs": [
        {
          "internalType": "address",
          "name": "",
          "type": "address"
        }
      ],
      "stateMutability": "view",
      "type": "function"
    },
    {
      "inputs": [
        {
          "internalType": "address",
          "name": "newOwner",
          "type": "address"
        }
      ],
      "name": "transferOwnership",
      "outputs": [],
      "stateMutability": "nonpayable",
      "type": "function"
    }
  ],
  "bytecode": "0x6080346100fd57601f6112f938819003918201601f19168301916001600160401b03831184841017610101578084926060946040528339810103126100fd5761004781610115565b90602081015160ff811681036100fd576001600160a01b0391829061006e90604001610115565b169081156100e5575f549260405194838286167f8be0079c531659141344cd1fd0a4f28419497f9722a3daafe3b4186f6b6457e05f80a3600180546001600160a01b031916929091169190911790556001600160a81b03199092161760a09190911b60ff60a01b16175f556111cf908161012a8239f35b604051631e4fbdf760e01b81525f6004820152602490fd5b5f80fd5b634e487b7160e01b5f52604160045260245ffd5b51906001600160a01b03821682036100fd5756fe60406080815260049081361015610014575f80fd5b5f91823560e01c80630ae9c277146109705780631b66cb0014610901578063327107f7146108d85780633f888cbb146108b55780634a032e6d146105a75780635e7ffa671461053e578063715018a6146104e15780638627a5551461042d5780638b4a6f23146103c25780638da5cb5b1461039a578063bad7d8011461012b5763f2fde38b146100a2575f80fd5b34610127576020366003190112610127576100bb610b7e565b906100c4610bfa565b6001600160a01b0391821692831561011157505082546001600160a01b0319811683178455167f8be0079c531659141344cd1fd0a4f28419497f9722a3daafe3b4186f6b6457e08380a380f35b51631e4fbdf760e01b8152908101849052602490fd5b8280fd5b5082903461039657826003193601126103965767ffffffffffffffff9281358481116103925761015e9036908401610bb4565b916001600160a01b0390602435828116919082900361038e5761017f610bfa565b83519687938487516020968161019a8993848d019e8f610b38565b81016002815203019020541615610223575b50506101e5827ff81ecd28776a8735cc06d219e4743db8b49b4c2194bd92117717b64884d88bee96978551809381928951928391610b38565b81016002815203019020816bffffffffffffffffffffffff60a01b8254161790556102198351948486958652850190610b59565b918301520390a180f35b6003546801000000000000000081101561037b57610248600191828101600355610a65565b939093610369578751928311610356575061026d826102678554610aae565b85610c3b565b84601f83116001146102d05792828087948b9c946101e5977ff81ecd28776a8735cc06d219e4743db8b49b4c2194bd92117717b64884d88bee9d936102c5575b501b915f199060031b1c19161790555b9796506101ac565b8c015192508e6102ad565b83895285892091929190601f1983168a5b8181106103415750926101e59592889592827ff81ecd28776a8735cc06d219e4743db8b49b4c2194bd92117717b64884d88bee9d9e9610610329575b5050811b0190556102bd565b8b01515f1960f88460031b161c191690558c8061031d565b8a8301518455928501929188019188016102e1565b634e487b7160e01b895260419052602488fd5b634e487b7160e01b8952889052602488fd5b634e487b7160e01b885260418352602488fd5b8580fd5b8380fd5b5080fd5b505034610396578160031936011261039657905490516001600160a01b039091168152602090f35b5034610127576020366003190112610127573560ff8116808203610392577fb68ce7ddb33bf1631ee9045b7bb5051072e5b63f8cd4ee8e388859a7eda78cb99260209261040d610bfa565b855460ff60a01b191660a09190911b60ff60a01b1617855551908152a180f35b50503461039657806003193601126103965761045361044a610b7e565b60243590610d91565b90805191602080845260c084019482519560a08387015286518091528260e087019701915b8181106104c457505050839461049b91830151601f198683030185870152610b59565b91810151606084015260608101516080840152608060018060a01b039101511660a08301520390f35b82516001600160a01b031688529683019691830191600101610478565b833461053b578060031936011261053b576104fa610bfa565b80546001600160a01b03198116825581906001600160a01b03167f8be0079c531659141344cd1fd0a4f28419497f9722a3daafe3b4186f6b6457e08280a380f35b80fd5b50913461053b57602036600319011261053b5782359067ffffffffffffffff821161053b575060209261057391369101610bb4565b8261058683519283815193849201610b38565b6002908201908152819003830190205490516001600160a01b039091168152f35b50913461053b5760208060031936011261039657833567ffffffffffffffff8111610127576105d99036908601610bb4565b906105e2610bfa565b835193825194828401956105f7818389610b38565b600290820190815281900383019020546001600160a01b0316156108725780518281855161062681838b610b38565b810160028152030190206bffffffffffffffffffffffff60a01b8154169055835b60038054908183101561083f5761065d83610a65565b5084518154939190898161067087610aae565b918282528a8201946001988c8a821691825f146108215750506001146107eb575b5061069e92500382610b16565b51902087518a20146106bb575050506106b690610c80565b610647565b91939495969750915f19918281019081116107d8576106dc6106e391610a65565b5091610a65565b6107c657906106f191610ca2565b815480156107b357019161070483610a65565b6107a1578798509661075a949392918861073f7f705dbf555b63903777eca5aea4b4cf3021a8bae7d0e42662833f25c633c8828a9a54610aae565b80610760575b50505050555b51928284938452830190610b59565b0390a180f35b83601f9384831160011461077e575050509050555b875f8080610745565b839294829461079a93528b8520950160051c8501908501610c25565b5555610775565b634e487b7160e01b8852878952602488fd5b634e487b7160e01b885260318952602488fd5b634e487b7160e01b8952888a52602489fd5b634e487b7160e01b895260118a52602489fd5b8d525050888b208b91905b81831061080e575050818961069e928201015f610691565b80548484018c0152918a019187016107f6565b60ff1916885261069e95151560051b85010192505f91506106919050565b50505061075a91929395507f705dbf555b63903777eca5aea4b4cf3021a8bae7d0e42662833f25c633c8828a945061074b565b5162461bcd60e51b815280860191909152601d60248201527f5061746846696e6465723a20444558206e6f7420737570706f727465640000006044820152606490fd5b50503461039657816003193601126103965760ff6020925460a01c169051908152f35b50503461039657816003193601126103965760015490516001600160a01b039091168152602090f35b5050346103965760203660031901126103965760207fe840382f117c32ae2da4f59b1209e4d1ada4400792a13d114577fe1eae60245691610940610b7e565b610948610bfa565b600180546001600160a01b0319166001600160a01b039290921691821790559051908152a180f35b5090346101275760209182600319360112610392578035600354811015610a615761099a90610a65565b919091610a4f57508151938491818154906109b482610aae565b928386526001928884821691825f14610a255750506001146109e7575b85886109e38961074b848a0385610b16565b0390f35b87945081939291528383205b828410610a0d575050508201018161074b6109e35f6109d1565b8054848a0186015288955087949093019281016109f3565b60ff19168882015294151560051b8701909401945085935061074b92506109e391505f90506109d1565b634e487b7160e01b8552849052602484fd5b8480fd5b600354811015610a9a5760035f527fc2575a0e9e593c00f959f8c92f12db2869c3395a3b0502d05e2516446f71f85b01905f90565b634e487b7160e01b5f52603260045260245ffd5b90600182811c92168015610adc575b6020831014610ac857565b634e487b7160e01b5f52602260045260245ffd5b91607f1691610abd565b60a0810190811067ffffffffffffffff821117610b0257604052565b634e487b7160e01b5f52604160045260245ffd5b90601f8019910116810190811067ffffffffffffffff821117610b0257604052565b5f5b838110610b495750505f910152565b8181015183820152602001610b3a565b90602091610b7281518092818552858086019101610b38565b601f01601f1916010190565b600435906001600160a01b0382168203610b9457565b5f80fd5b67ffffffffffffffff8111610b0257601f01601f191660200190565b81601f82011215610b9457803590610bcb82610b98565b92610bd96040519485610b16565b82845260208383010111610b9457815f926020809301838601378301015290565b5f546001600160a01b03163303610c0d57565b60405163118cdaa760e01b8152336004820152602490fd5b818110610c30575050565b5f8155600101610c25565b9190601f8111610c4a57505050565b610c74925f5260205f20906020601f840160051c83019310610c76575b601f0160051c0190610c25565b565b9091508190610c67565b5f198114610c8e5760010190565b634e487b7160e01b5f52601160045260245ffd5b90808214610d7957610cb48154610aae565b9067ffffffffffffffff8211610b02578190610cda82610cd48654610aae565b86610c3b565b5f90601f8311600114610d0e575f92610d03575b50508160011b915f199060031b1c1916179055565b015490505f80610cee565b81526020808220858352818320935090601f1985169083905b828210610d60575050908460019594939210610d48575b505050811b019055565b01545f1960f88460031b161c191690555f8080610d3e565b8495819295850154815560018091019601940190610d27565b5050565b51906001600160a01b0382168203610b9457565b90604091825191610da183610ae6565b60609384845260209285848601525f94858382015285878201526080908682820152968415611155576001805490966001600160a01b03948516949091811685146110ac5788868b01528789905b610e01575b5050505050505050505090565b6003548110156110a7578786888c8c86610e1a87610a65565b50898551918590805490610e2d82610aae565b918888821691825f1461108c575050600114611049575b5050928281926084948660028a999852030190205416925416835495519485938492635fbd8ce360e01b84526004998a85015260249a8b850152604484015260ff60a098891c1660648401525af193841561103d578e94610ed1575b5050505087810151888d015110610ec7575b5090610ebf899392610c80565b909192610def565b9a50610ebf610eb2565b92935090913d808f843e610ee58184610b16565b8201918781840312610ff257805167ffffffffffffffff9182821161103857019384840312610ff2578b5194610f1a86610ae6565b8451828111611038578501601f93858583011215611032578151928484116110195750508d8260051b905192610f528c830185610b16565b83528a8084019183010191868311611012578b809101915b838310610ffa5750505050855287840151908111610ff257829084019182011215610ff657805190610f9b82610b98565b92610fa88d519485610b16565b828452888383010111610ff25791610fcb610fe594928b948a8085019101610b38565b878501528a8101518b850152878101518885015201610d7d565b868201525f808080610ea0565b8e80fd5b8d80fd5b819061100584610d7d565b8152019101908b90610f6a565b5050508f80fd5b92509450508f925060419150634e487b7160e01b835252fd5b50508f80fd5b508f80fd5b8e8c51903d90823e3d90fd5b909150865281862086905b82821061106657505082018286610e44565b945096509650935095508054848701520191018c868f9295898f97968f96978f98611054565b60ff191687528315159093028601935085929150610e449050565b610df4565b5084519850919550929167ffffffffffffffff91908885018381118a821017611141578452600289528189018436823789511561112d57528251976110f089610ae6565b885282519181830190811183821017611119578352868252870152850182905284015282015290565b634e487b7160e01b88526041600452602488fd5b634e487b7160e01b89526032600452602489fd5b634e487b7160e01b89526041600452602489fd5b835162461bcd60e51b815260048101879052601a60248201527f5061746846696e6465723a20494e56414c49445f414d4f554e540000000000006044820152606490fdfea2646970667358221220319273b04f55470a7d73b8733b4040d271bdc1c84f505fde1f59ea5edf0a255c64736f6c63430008140033",
  "linkReferences": {},
  "deployedLinkReferences": {},
  "immutableReferences": {},
  "inputSourceName": "project/contracts/PathFinder.sol",
  "buildInfoId": "solc-0_8_20-d0d2261245815d5df12933e45a54eecce1c57bb1"
}