{
  "_format": "hh3-artifact-1",
  "contractName": "TokenSwap",
  "sourceName": "contracts/TokenSwap.sol",
  "abi": [
    {
      "inputs": [
        {
          "internalType": "address",
          "name": "_pathFinder",
          "type": "address"
        },
        {
          "internalType": "address",
          "name": "_owner",
          "type": "address"
        }
      ],
      "stateMutability": "nonpayable",
      "type": "constructor"
    },
    {
      "inputs": [
        {
          "internalType": "address",
          "name": "owner",
          "type": "address"
        }
      ],
      "name": "OwnableInvalidOwner",
      "type": "error"
    },
    {
      "inputs": [
        {
          "internalType": "address",
          "name": "account",
          "type": "address"
        }
      ],
      "name": "OwnableUnauthorizedAccount",
      "type": "error"
    },
    {
      "inputs": [],
      "name": "ReentrancyGuardReentrantCall",
      "type": "error"
    },
    {
      "anonymous": false,
      "inputs": [
        {
          "indexed": false,
          "internalType": "string",
          "name": "dexName",
          "type": "string"
        },
        {
          "indexed": false,
          "internalType": "address",
          "name": "routerAddress",
          "type": "address"
        }
      ],
      "name": "DexRouterAdded",
      "type": "event"
    },
    {
      "anonymous": false,
      "inputs": [
        {
          "indexed": false,
          "internalType": "string",
          "name": "dexName",
          "type": "string"
        }
      ],
      "name": "DexRouterRemoved",
      "type": "event"
    },
    {
      "anonymous": false,
      "inputs": [
        {
          "indexed": true,
          "internalType": "address",
          "name": "previousOwner",
          "type": "address"
        },
        {
          "indexed": true,
          "internalType": "address",
          "name": "newOwner",
          "type": "address"
        }
      ],
      "name": "OwnershipTransferred",
      "type": "event"
    },
    {
      "anonymous": false,
      "inputs": [
        {
          "indexed": true,
          "internalType": "address",
          "name": "tokenIn",
          "type": "address"
        },
        {
          "indexed": true,
          "internalType": "address",
          "name": "tokenOut",
          "type": "address"
        },
        {
          "indexed": false,
          "internalType": "uint256",
          "name": "amountIn",
          "type": "uint256"
        },
        {
          "indexed": false,
          "internalType": "uint256",
          "name": "amountOut",
          "type": "uint256"
        },
        {
          "indexed": false,
          "internalType": "string",
          "name": "dexName",
          "type": "string"
        }
      ],
      "name": "Swapped",
      "type": "event"
    },
    {
      "inputs": [
        {
          "internalType": "string",
          "name": "_dexName",
          "type": "string"
        },
        {
          "internalType": "address",
          "name": "_routerAddress",
          "type": "address"
        }
      ],
      "name": "addDexRouter",
      "outputs": [],
      "stateMutability": "nonpayable",
      "type": "function"
    },
    {
      "inputs": [
        {
          "internalType": "string",
          "name": "",
          "type": "string"
        }
      ],
      "name": "dexRouters",
      "outputs": [
        {
          "internalType": "address",
          "name": "",
          "type": "address"
        }
      ],
      "stateMutability": "view",
      "type": "function"
    },
    {
      "inputs": [
        {
          "internalType": "address",
          "name": "tokenIn",
          "type": "address"
        },
        {
          "internalType": "uint256",
          "name": "amountIn",
          "type": "uint256"
        }
      ],
      "name": "getSwapToTargetQuote",
      "outputs": [
        {
          "components": [
            {
              "internalType": "address[]",
              "name": "path",
              "type": "address[]"
            },
            {
              "internalType": "bytes",
              "name": "pathBytes",
              "type": "bytes"
            },
            {
              "internalType": "uint256",
              "name": "outputAmount",
              "type": "uint256"
            },
            {
              "internalType": "uint256",
              "name": "inputAmount",
              "type": "uint256"
            },
            {
              "internalType": "address",
              "name": "dexRouter",
              "type": "address"
            }
          ],
          "internalType": "struct Model.SwapPath",
          "name": "bestPath",
          "type": "tuple"
        }
      ],
      "stateMutability": "nonpayable",
      "type": "function"
    },
    {
      "inputs": [],
      "name": "owner",
      "outputs": [
        {
          "internalType": "address",
          "name": "",
          "type": "address"
        }
      ],
      "stateMutability": "view",
      "type": "function"
    },
    {
      "inputs": [],
      "name": "pathFinder",
      "outputs": [
        {
          "internalType": "contract PathFinder",
          "name": "",
          "type": "address"
        }
      ],
      "stateMutability": "view",
      "type": "function"
    },
    {
      "inputs": [
        {
          "internalType": "string",
          "name": "_dexName",
          "type": "string"
        }
      ],
      "name": "removeDexRouter",
      "outputs": [],
      "stateMutability": "nonpayable",
      "type": "function"
    },
    {
      "inputs": [],
      "name": "renounceOwnership",
      "outputs": [],
      "stateMutability": "nonpayable",
      "type": "function"
    },
    {
      "inputs": [
        {
          "internalType": "uint8",
          "name": "_maxHops",
          "type": "uint8"
        }
      ],
      "name": "setMaxHops",
      "outputs": [],
      "stateMutability": "nonpayable",
      "type": "function"
    },
    {
      "inputs": [
        {
          "internalType": "address",
          "name": "_targetToken",
          "type": "address"
        }
      ],
      "name": "setTargetToken",
      "outputs": [],
      "stateMutability": "nonpayable",
      "type": "function"
    },
    {
      "inputs": [
        {
          "internalType": "uint256",
          "name": "",
          "type": "uint256"
        }
      ],
      "name": "supportedDexes",
      "outputs": [
        {
          "internalType": "string",
          "name": "",
          "type": "string"
        }
      ],
      "stateMutability": "view",
      "type": "function"
    },
    {
      "inputs": [
        {
          "internalType": "address",
          "name": "tokenIn",
          "type": "address"
        },
        {
          "internalType": "uint256",
          "name": "amountIn",
          "type": "uint256"
        },
        {
          "internalType": "uint256",
          "name": "minAmountOut",
          "type": "uint256"
        },
        {
          "internalType": "uint256",
          "name": "deadline",
          "type": "uint256"
        }
      ],
      "name": "swapToTarget",
      "outputs": [
        {
          "internalType": "uint256",
          "name": "amountOut",
          "type": "uint256"
        }
      ],
      "stateMutability": "payable",
      "type": "function"
    },
    {
      "inputs": [
        {
          "internalType": "address",
          "name": "newOwner",
          "type": "address"
        }
      ],
      "name": "transferOwnership",
      "outputs": [],
      "stateMutability": "nonpayable",
      "type": "function"
    },
    {
      "inputs": [
        {
          "internalType": "address",
          "name": "token",
          "type": "address"
        },
        {
          "internalType": "uint256",
          "name": "amount",
          "type": "uint256"
        }
      ],
      "name": "withdrawTokens",
      "outputs": [],
      "stateMutability": "nonpayable",
      "type": "function"
    }
  ],
  "bytecode": "0x60a03461010d57601f620018e238819003918201601f19168301916001600160401b0383118484101761011157808492604094855283398101031261010d57602061004982610125565b916001600160a01b0391829161005f9101610125565b169182156100f5575f80546001600160a01b03198116851782556040519491908416907f8be0079c531659141344cd1fd0a4f28419497f9722a3daafe3b4186f6b6457e09080a360018055166080526117a890816200013a823960805181818161011001528181610227015281816107d50152818161090801528181610b4101528181610c2301528181610e5901526110520152f35b604051631e4fbdf760e01b81525f6004820152602490fd5b5f80fd5b634e487b7160e01b5f52604160045260245ffd5b51906001600160a01b038216820361010d5756fe60806040526004361015610011575f80fd5b5f803560e01c806306b091f9146111a95780630ae9c277146110b55780631b66cb00146110265780634a032e6d14610cbc5780635e7ffa6714610c525780636b74c67f14610c0d578063715018a614610bb45780638b4a6f2314610b165780638da5cb5b14610aef578063bad7d80114610851578063f10587e714610757578063f2fde38b146106cf5763faf0436a146100a9575f80fd5b6080366003190112610310576100bd611227565b906002600154146106bd5760026001556024918235606435421161067957801561063557604051638627a55560e01b81526001600160a01b038316600482015260248101829052838180604481010381837f00000000000000000000000000000000000000000000000000000000000000006001600160a01b03165af190811561062a578491610608575b506044356040820151106105b65760808101516001600160a01b0316156105725760808101516040516312009f2760e01b81529495939493908690859060049082906001600160a01b03165afa9384156104b7578694610517575b506001600160a01b03851692836103a957503415610366575060206101fa91349560018060a01b036080830151169087604051809681958294636fd52fc360e01b8452606435918533926044359260048801611735565b03925af190811561035b578591610326575b50925b60405163327107f760e01b81526020959086816004817f00000000000000000000000000000000000000000000000000000000000000006001600160a01b03165afa91821561031a5780926102bc575b50507fda7190792b9a5001135913a1281168e8ac154ecee21fbbf5dc7a6af3a33a780f916102ad604051928392835287898401526060604084015260018060a01b0316956060830190611345565b0390a360018055604051908152f35b9091508682813d8311610313575b6102d48183611302565b810103126103105750906103087fda7190792b9a5001135913a1281168e8ac154ecee21fbbf5dc7a6af3a33a780f926115d8565b90915f61025f565b80fd5b503d6102ca565b604051903d90823e3d90fd5b90506020813d8211610353575b8161034060209383611302565b8101031261034f57515f61020c565b5f80fd5b3d9150610333565b6040513d87823e3d90fd5b60649060206040519162461bcd60e51b83528160048401528201527f546f6b656e537761703a20494e53554646494349454e545f4554485f53454e546044820152fd5b9490604051906323b872dd60e01b8252336004830152309082015285604482015260209283826064818b895af19182156104ef5761041e926104fa575b50608081015160405163095ea7b360e01b81526001600160a01b03909116600482015260248101889052918490839081906044820190565b03818b895af19081156104ef5761046f93859389936104c2575b508960018060a01b036080840151169260405196879586948593636fd52fc360e01b85526064359233926044359260048801611735565b03925af19182156104b7578692610489575b50509261020f565b90809250813d83116104b0575b6104a08183611302565b8101031261034f57515f80610481565b503d610496565b6040513d88823e3d90fd5b6104e190853d87116104e8575b6104d98183611302565b81019061171d565b505f610438565b503d6104cf565b6040513d8a823e3d90fd5b61051090853d87116104e8576104d98183611302565b505f6103e6565b9093503d8087833e6105298183611302565b81019060208183031261056a5780519067ffffffffffffffff821161056e57019080601f8301121561056a578151610563926020016115ec565b925f6101a3565b8680fd5b8780fd5b60405162461bcd60e51b8152602060048201526018818701527f546f6b656e537761703a204e4f5f56414c49445f5041544800000000000000006044820152606490fd5b60405162461bcd60e51b8152602060048201526025818701527f546f6b656e537761703a20494e53554646494349454e545f4f55545055545f416044820152641353d5539560da1b6064820152608490fd5b61062491503d8086833e61061c8183611302565b810190611621565b5f610148565b6040513d86823e3d90fd5b60405162461bcd60e51b8152602060048201526019818601527f546f6b656e537761703a20494e56414c49445f414d4f554e54000000000000006044820152606490fd5b60405162461bcd60e51b815260206004820152601e818601527f546f6b656e537761703a205452414e53414354494f4e5f4558504952454400006044820152606490fd5b604051633ee5aeb560e01b8152600490fd5b5034610310576020366003190112610310576106e9611227565b6106f161144f565b6001600160a01b0390811690811561073e575f54826001600160601b0360a01b8216175f55167f8be0079c531659141344cd1fd0a4f28419497f9722a3daafe3b4186f6b6457e05f80a380f35b604051631e4fbdf760e01b815260048101849052602490fd5b5034610310576040366003190112610310576107d081610775611227565b816080604051610784816112e6565b6060815260606020820152826040820152826060820152015260405180938192638627a55560e01b8352602435906004840160209093929193604081019460018060a01b031681520152565b0381837f00000000000000000000000000000000000000000000000000000000000000006001600160a01b03165af19081156108465782610827939261082b575b50506040519182916020835260208301906113cc565b0390f35b61083f92503d8091833e61061c8183611302565b5f80610811565b6040513d84823e3d90fd5b50346103105760403660031901126103105767ffffffffffffffff906004358281116109b057610885903690600401611386565b6024356001600160a01b0380821680830361034f576108a261144f565b60405195828760208188516108bb81848c019d8e611324565b810160028152030190205416156109b4575b506108ea6020869760409795969751809381928a51928391611324565b81016002815203019020906001600160601b0360a01b8254161790557f000000000000000000000000000000000000000000000000000000000000000016803b156109b05781604051809263bad7d80160e01b8252818381610950898b600484016114d5565b03925af1801561084657610998575b50507ff81ecd28776a8735cc06d219e4743db8b49b4c2194bd92117717b64884d88bee91610992604051928392836114d5565b0390a180f35b6109a1906112be565b6109ac57825f61095f565b8280fd5b5080fd5b9560035468010000000000000000811015610adb576109da60019182810160035561123d565b919091610ac7578651988911610ab3576109fe896109f88454611286565b84611490565b6020601f8a11600114610a49579189808a9b6108ea96946020968d9b9c9d93610a3e575b501b915f199060031b1c19161790555b975050949392946108cd565b8d015192505f610a22565b98601f198116838a5260208a20908a5b818110610a9d5750916108ea9593918b9c82602097959d9b9c9d10610a85575b5050811b019055610a32565b8c01515f1960f88460031b161c191690555f80610a79565b8a8d0151835560209c8d019c9285019201610a59565b634e487b7160e01b88526041600452602488fd5b634e487b7160e01b88526004889052602488fd5b634e487b7160e01b87526041600452602487fd5b5034610310578060031936011261031057546040516001600160a01b039091168152602090f35b5034610310576020366003190112610310578060043560ff8116809103610bb157610b3f61144f565b7f00000000000000000000000000000000000000000000000000000000000000006001600160a01b031690813b15610bad578291602483926040519485938492638b4a6f2360e01b845260048401525af1801561084657610b9d5750f35b610ba6906112be565b6103105780f35b5050fd5b50fd5b5034610310578060031936011261031057610bcd61144f565b5f80546001600160a01b0319811682556001600160a01b03167f8be0079c531659141344cd1fd0a4f28419497f9722a3daafe3b4186f6b6457e08280a380f35b50346103105780600319360112610310576040517f00000000000000000000000000000000000000000000000000000000000000006001600160a01b03168152602090f35b5034610310576020366003190112610310576004359067ffffffffffffffff8211610310576020610c863660048501611386565b81610c9a6040519283815193849201611324565b600290820190815281900382019020546040516001600160a01b039091168152f35b503461031057602090816003193601126103105760043567ffffffffffffffff81116109b057610cf0903690600401611386565b91610cf961144f565b6040519280519382820194610d0f818388611324565b600290820190815281900383019020546001600160a01b0390811615610fe15760405183818451610d4181838b611324565b810160028152030190206001600160601b0360a01b8154169055835b600380549081831015610fd257610d738361123d565b5060405181549391908981610d8787611286565b918282528b8201946001988d8a821691825f14610fb4575050600114610f7e575b50610db592500382611302565b51902086518a2014610de8575050505f198114610dd457600101610d5d565b634e487b7160e01b85526011600452602485fd5b91939495969750915f1991828101908111610f6a57610e09610e109161123d565b509161123d565b610f565790610e1e916114fd565b81548015610f42570191610e318361123d565b919091610ac75781889594939291610e4a879354611286565b9081610f01575b50505050555b7f000000000000000000000000000000000000000000000000000000000000000016803b156109b057816040518092634a032e6d60e01b8252866004830152818381610ea6602482018a611345565b03925af1801561084657610eed575b50507f705dbf555b63903777eca5aea4b4cf3021a8bae7d0e42662833f25c633c8828a91610992604051928284938452830190611345565b610ef6906112be565b6109ac57825f610eb5565b601f808311600114610f1e575050505f9150555b835f8080610e51565b8391610f3b915f949587528c8720950160051c850190850161147a565b5555610f15565b634e487b7160e01b88526031600452602488fd5b634e487b7160e01b89526004899052602489fd5b634e487b7160e01b89526011600452602489fd5b8d525050898b208b91905b818310610fa1575050818a610db5928201015f610da8565b80548484018d0152918b01918701610f89565b60ff19168852610db595151560051b85010192505f9150610da89050565b50505083945092909192610e57565b60405162461bcd60e51b815260048101849052601c60248201527f546f6b656e537761703a20444558206e6f7420737570706f72746564000000006044820152606490fd5b503461031057602036600319011261031057611040611227565b61104861144f565b6001600160a01b037f0000000000000000000000000000000000000000000000000000000000000000811691839190833b156109ac57602490836040519586948593621b66cb60e81b85521660048401525af18015610846576110a9575080f35b6110b2906112be565b80f35b5034610310576020806003193601126109b0576004356003548110156109ac576110de9061123d565b61119557604051838194908354906110f582611286565b948585526001928784821691825f14611171575050600114611135575b50505061112192500383611302565b610827604051928284938452830190611345565b869350819291528282205b85831061115957505061112193508201015f8080611112565b80548389018501528794508693909201918101611140565b93509450505061112194915060ff191682840152151560051b8201015f8080611112565b634e487b7160e01b83526004839052602483fd5b5034610310576040366003190112610310576111c3611227565b6111cb61144f565b60405163a9059cbb60e01b81523360048201526024803590820152906020908290604490829086906001600160a01b03165af180156108465761120c575080f35b6112239060203d81116104e8576104d98183611302565b5080f35b600435906001600160a01b038216820361034f57565b6003548110156112725760035f527fc2575a0e9e593c00f959f8c92f12db2869c3395a3b0502d05e2516446f71f85b01905f90565b634e487b7160e01b5f52603260045260245ffd5b90600182811c921680156112b4575b60208310146112a057565b634e487b7160e01b5f52602260045260245ffd5b91607f1691611295565b67ffffffffffffffff81116112d257604052565b634e487b7160e01b5f52604160045260245ffd5b60a0810190811067ffffffffffffffff8211176112d257604052565b90601f8019910116810190811067ffffffffffffffff8211176112d257604052565b5f5b8381106113355750505f910152565b8181015183820152602001611326565b9060209161135e81518092818552858086019101611324565b601f01601f1916010190565b67ffffffffffffffff81116112d257601f01601f191660200190565b81601f8201121561034f5780359061139d8261136a565b926113ab6040519485611302565b8284526020838301011161034f57815f926020809301838601378301015290565b9060a08101825160a08352805180925260c08301916020809201905f5b818110611432575050506080918161140b928601519085830390860152611345565b6040808501519084015260608085015190840152928101516001600160a01b031691015290565b82516001600160a01b0316855293830193918301916001016113e9565b5f546001600160a01b0316330361146257565b60405163118cdaa760e01b8152336004820152602490fd5b818110611485575050565b5f815560010161147a565b9190601f811161149f57505050565b6114c9925f5260205f20906020601f840160051c830193106114cb575b601f0160051c019061147a565b565b90915081906114bc565b906114ed602091949394604084526040840190611345565b6001600160a01b03909416910152565b908082146115d45761150f8154611286565b9067ffffffffffffffff82116112d25781906115358261152f8654611286565b86611490565b5f90601f8311600114611569575f9261155e575b50508160011b915f199060031b1c1916179055565b015490505f80611549565b81526020808220858352818320935090601f1985169083905b8282106115bb5750509084600195949392106115a3575b505050811b019055565b01545f1960f88460031b161c191690555f8080611599565b8495819295850154815560018091019601940190611582565b5050565b51906001600160a01b038216820361034f57565b909291926115f98161136a565b916116076040519384611302565b82948284528282011161034f5760206114c9930190611324565b90602090818382031261034f57825167ffffffffffffffff9384821161034f570160a08183031261034f5760405193611659856112e6565b815181811161034f57820183601f8201121561034f578051908282116112d2578160051b6040519261168d88830185611302565b835286808401918301019186831161034f5787809101915b838310611705575050505085528382015190811161034f5781019282601f8501121561034f576116df60809385836116fd975191016115ec565b908501526040810151604085015260608101516060850152016115d8565b608082015290565b8190611710846115d8565b81520191019087906116a5565b9081602091031261034f5751801515810361034f5790565b92969594909361174f60a09560c0865260c08601906113cc565b97600180871b03809416602086015260408501526060840152166080820152015256fea264697066735822122070a7e7deb65f86800fb0cf491e13dc24adf94955ade580b0ca155bab9f60e85a64736f6c63430008140033",
  "linkReferences": {},
  "deployedLinkReferences": {},
  "immutableReferences": {
    "706": [
      {
        "length": 32,
        "start": 272
      },
      {
        "length": 32,
        "start": 551
      },
      {
        "length": 32,
        "start": 2005
      },
      {
        "length": 32,
        "start": 2312
      },
      {
        "length": 32,
        "start": 2881
      },
      {
        "length": 32,
        "start": 3107
      },
      {
        "length": 32,
        "start": 3673
      },
      {
        "length": 32,
        "start": 4178
      }
    ]
  },
  "inputSourceName": "project/contracts/TokenSwap.sol",
  "buildInfoId": "solc-0_8_20-83f39d7ed80679c20bc52f689bf19f937df4aef5"
}