{
  "_format": "hh3-artifact-1",
  "contractName": "TokenSwap",
  "sourceName": "contracts/TokenSwap.sol",
  "abi": [
    {
      "inputs": [
        {
          "internalType": "address",
          "name": "_targetToken",
          "type": "address"
        },
        {
          "internalType": "uint8",
          "name": "_maxHops",
          "type": "uint8"
        },
        {
          "internalType": "address[]",
          "name": "_supportedTokens",
          "type": "address[]"
        },
        {
          "internalType": "address",
          "name": "_owner",
          "type": "address"
        }
      ],
      "stateMutability": "nonpayable",
      "type": "constructor"
    },
    {
      "inputs": [
        {
          "internalType": "address",
          "name": "owner",
          "type": "address"
        }
      ],
      "name": "OwnableInvalidOwner",
      "type": "error"
    },
    {
      "inputs": [
        {
          "internalType": "address",
          "name": "account",
          "type": "address"
        }
      ],
      "name": "OwnableUnauthorizedAccount",
      "type": "error"
    },
    {
      "anonymous": false,
      "inputs": [
        {
          "indexed": true,
          "internalType": "address",
          "name": "previousOwner",
          "type": "address"
        },
        {
          "indexed": true,
          "internalType": "address",
          "name": "newOwner",
          "type": "address"
        }
      ],
      "name": "OwnershipTransferred",
      "type": "event"
    },
    {
      "anonymous": false,
      "inputs": [
        {
          "indexed": false,
          "internalType": "address",
          "name": "pathFinder",
          "type": "address"
        }
      ],
      "name": "PathFinderSet",
      "type": "event"
    },
    {
      "inputs": [
        {
          "internalType": "string",
          "name": "_dexName",
          "type": "string"
        },
        {
          "internalType": "address",
          "name": "_routerAddress",
          "type": "address"
        }
      ],
      "name": "addDexRouter",
      "outputs": [],
      "stateMutability": "nonpayable",
      "type": "function"
    },
    {
      "inputs": [
        {
          "internalType": "address",
          "name": "token",
          "type": "address"
        }
      ],
      "name": "addSupportToken",
      "outputs": [],
      "stateMutability": "nonpayable",
      "type": "function"
    },
    {
      "inputs": [],
      "name": "getAllSupportedTokens",
      "outputs": [
        {
          "internalType": "address[]",
          "name": "",
          "type": "address[]"
        }
      ],
      "stateMutability": "view",
      "type": "function"
    },
    {
      "inputs": [
        {
          "internalType": "address",
          "name": "tokenIn",
          "type": "address"
        },
        {
          "internalType": "uint256",
          "name": "amountIn",
          "type": "uint256"
        }
      ],
      "name": "getSwapToTargetQuote",
      "outputs": [
        {
          "components": [
            {
              "internalType": "address[]",
              "name": "path",
              "type": "address[]"
            },
            {
              "internalType": "uint24[]",
              "name": "fees",
              "type": "uint24[]"
            },
            {
              "internalType": "bytes",
              "name": "pathBytes",
              "type": "bytes"
            },
            {
              "internalType": "uint256",
              "name": "outputAmount",
              "type": "uint256"
            },
            {
              "internalType": "address",
              "name": "outputToken",
              "type": "address"
            },
            {
              "internalType": "uint256",
              "name": "inputAmount",
              "type": "uint256"
            },
            {
              "internalType": "address",
              "name": "inputToken",
              "type": "address"
            },
            {
              "internalType": "uint256",
              "name": "gasEstimate",
              "type": "uint256"
            },
            {
              "internalType": "address",
              "name": "dexRouter",
              "type": "address"
            }
          ],
          "internalType": "struct Model.SwapPath",
          "name": "bestPath",
          "type": "tuple"
        }
      ],
      "stateMutability": "nonpayable",
      "type": "function"
    },
    {
      "inputs": [],
      "name": "owner",
      "outputs": [
        {
          "internalType": "address",
          "name": "",
          "type": "address"
        }
      ],
      "stateMutability": "view",
      "type": "function"
    },
    {
      "inputs": [],
      "name": "pathFinder",
      "outputs": [
        {
          "internalType": "contract PathFinder",
          "name": "",
          "type": "address"
        }
      ],
      "stateMutability": "view",
      "type": "function"
    },
    {
      "inputs": [
        {
          "internalType": "string",
          "name": "_dexName",
          "type": "string"
        }
      ],
      "name": "removeDexRouter",
      "outputs": [],
      "stateMutability": "nonpayable",
      "type": "function"
    },
    {
      "inputs": [
        {
          "internalType": "address",
          "name": "token",
          "type": "address"
        }
      ],
      "name": "removeSupportedToken",
      "outputs": [],
      "stateMutability": "nonpayable",
      "type": "function"
    },
    {
      "inputs": [],
      "name": "renounceOwnership",
      "outputs": [],
      "stateMutability": "nonpayable",
      "type": "function"
    },
    {
      "inputs": [
        {
          "internalType": "uint8",
          "name": "_maxHops",
          "type": "uint8"
        }
      ],
      "name": "setMaxHops",
      "outputs": [],
      "stateMutability": "nonpayable",
      "type": "function"
    },
    {
      "inputs": [
        {
          "internalType": "address",
          "name": "_pathFinder",
          "type": "address"
        }
      ],
      "name": "setPathFinder",
      "outputs": [],
      "stateMutability": "nonpayable",
      "type": "function"
    },
    {
      "inputs": [
        {
          "internalType": "address",
          "name": "_targetToken",
          "type": "address"
        }
      ],
      "name": "setTargetToken",
      "outputs": [],
      "stateMutability": "nonpayable",
      "type": "function"
    },
    {
      "inputs": [
        {
          "internalType": "address",
          "name": "newOwner",
          "type": "address"
        }
      ],
      "name": "transferOwnership",
      "outputs": [],
      "stateMutability": "nonpayable",
      "type": "function"
    }
  ],
  "bytecode": "0x6040608081523462000224576200286a90813803806200001f816200023c565b93843982019160808184031262000224576200003b8162000262565b602091828101519060ff82168092036200022457808501516001600160401b0390818111620002245782019187601f84011215620002245782519782891162000228578860051b9387620000918187016200023c565b809b81520190888296820101928311620002245788809101915b8383106200020957506001600160a01b0396959493879350620000d49250606001905062000262565b16948515620001f2575f9889549460018060a01b03199780898816178c55878b5197167f8be0079c531659141344cd1fd0a4f28419497f9722a3daafe3b4186f6b6457e08d80a36119d486810194851187861017620001de579086959493929162000e9687398760808501931684528984015260808a8401525180915260a0820192908a5b89828210620001c45750505050606030910152039086f08015620001ba577f552286408ec108e2eb5a12395e39c2c962944095ae9b231fdadc586a5479c2eb94955016809160015416176001558351908152a151610c1e9081620002788239f35b84513d87823e3d90fd5b835189168652879650948501949092019160010162000159565b634e487b7160e01b8c52604160045260248cfd5b8751631e4fbdf760e01b81525f6004820152602490fd5b8190620002168462000262565b8152019101908890620000ab565b5f80fd5b634e487b7160e01b5f52604160045260245ffd5b6040519190601f01601f191682016001600160401b038111838210176200022857604052565b51906001600160a01b0382168203620002245756fe60806040818152600480361015610014575f80fd5b5f9260e08435811c9182630107e47214610931575081631b66cb00146108ba578482631c68bf00146108555782634a032e6d146107ca575081636b74c67f146107a0578163715018a6146107475784826376319190146106e15782638b4a6f231461066c575081638da5cb5b14610643578163a2bad8951461057e578163bad7d8011461046a578163f10587e714610145575063f2fde38b146100b5575f80fd5b34610141576020366003190112610141576100ce610a06565b906100d7610b2b565b6001600160a01b0391821692831561012b5750505f54826bffffffffffffffffffffffff60a01b8216175f55167f8be0079c531659141344cd1fd0a4f28419497f9722a3daafe3b4186f6b6457e05f80a380f35b51631e4fbdf760e01b8152908101849052602490fd5b8280fd5b91939050346104675782600319360112610467576044610163610a06565b9484519061017082610a44565b60609485835284602098878a860152878986015281888601528160808601528160a08601528160c08601528183860152816101008096015260018060a01b039586918383600154168c519788958694638627a55560e01b8652169084015260243560248401525af191821561045d5785926102cc575b5086518097898252610140820196845161012098898d86015281518091528c61016086019201908d84905b8282106102b2579250505080808801519d8e601f19978789828803019101525193848152019d01925b82811061029957505050509861025d91899a850151908a830301898b0152610b06565b9582015160808801528360808301511660a088015260a082015160c08801528360c0830151168188015281015182870152015116908301520390f35b835162ffffff168e529c81019c9281019260010161023a565b83518c1685528e975093840193909201916001018e610211565b9091503d8086833e6102de8183610a61565b8101888282031261045957815167ffffffffffffffff9283821161042e570190610120828203126104555788519261031584610a44565b825181811161042a578261032a918501610b82565b84528a83015181811161042a57830182601f8201121561042a5780519061035082610b56565b9161035d8d519384610a61565b8083528d8084019160051b83010191858311610451578e01905b828210610432575050508b8501528983015190811161042e57820181601f8201121561042e578051906103a982610a83565b926103b68c519485610a61565b8284528c838301011161042a57916103d961041f949288948e8085019101610ae5565b8a85015288810151898501526103f160808201610b6e565b608085015260a081015160a085015261040c60c08201610b6e565b60c0850152848101518585015201610b6e565b83820152905f6101e6565b8880fd5b8780fd5b815162ffffff8116810361044d578152908e01908e01610377565b8c80fd5b8b80fd5b8680fd5b8580fd5b87513d87823e3d90fd5b80fd5b8385843461057a578260031936011261057a57803567ffffffffffffffff81116101415761049b9036908301610a9f565b6001600160a01b0393906024358581169190829003610576576104bc610b2b565b811561052957849560015416803b156104595783866104f796819583519889968795869463bad7d80160e01b86528501526044840190610b06565b90602483015203925af190811561052057506105105750f35b61051990610a1c565b6104675780f35b513d84823e3d90fd5b825162461bcd60e51b8152602081860152602160248201527f546f6b656e537761703a20494e56414c49445f524f555445525f4144445245536044820152605360f81b6064820152608490fd5b5f80fd5b5080fd5b505090346101415760203660031901126101415761059a610a06565b6105a2610b2b565b6001600160a01b03169182156105f25750600180546001600160a01b03191683179055519081527f552286408ec108e2eb5a12395e39c2c962944095ae9b231fdadc586a5479c2eb90602090a180f35b6020608492519162461bcd60e51b8352820152602660248201527f546f6b656e537761703a20494e56414c49445f504154485f46494e4445525f4160448201526544445245535360d01b6064820152fd5b5050503461057a578160031936011261057a57905490516001600160a01b039091168152602090f35b808486346106dd5760203660031901126106dd5781359160ff83168093036106d857610696610b2b565b6001546001600160a01b031692833b156106d457602485928385519687948593638b4a6f2360e01b85528401525af190811561052057506105105750f35b8480fd5b505050fd5b5050fd5b808486346106dd5760203660031901126106dd576106fd610a06565b610705610b2b565b6001546001600160a01b03908116803b156104595785928360249286519788958694630763191960e41b865216908401525af190811561052057506105105750f35b8434610467578060031936011261046757610760610b2b565b5f80546001600160a01b0319811682556001600160a01b03167f8be0079c531659141344cd1fd0a4f28419497f9722a3daafe3b4186f6b6457e08280a380f35b5050503461057a578160031936011261057a5760015490516001600160a01b039091168152602090f35b808486346106dd5760203660031901126106dd57813567ffffffffffffffff81116106d8576107fc9036908401610a9f565b91610805610b2b565b6001546001600160a01b031692833b156106d457610842936020868094865197889586948593634a032e6d60e01b85528401526024830190610b06565b03925af190811561052057506105105750f35b808486346106dd5760203660031901126106dd57610871610a06565b610879610b2b565b6001546001600160a01b03908116803b156104595785928360249286519788958694621c68bf60e81b865216908401525af190811561052057506105105750f35b5050903461014157602036600319011261014157826108d7610a06565b6108df610b2b565b6001546001600160a01b039190821690813b1561092d578360249286519788958694621b66cb60e81b865216908401525af19081156105205750610921575080f35b61092a90610a1c565b80f35b8380fd5b8584918634610141578260031936011261014157600180546283f23960e11b845290946001600160a01b039185918591829085165afa9283156109fc5784936109b9575b509290809492945193602090818087019381885288518095528701970193905b8382106109a25786880387f35b845181168852968201969382019390850190610995565b9092503d8085833e6109cb8183610a61565b8101906020818303126106d45780519067ffffffffffffffff8211610459576109f5929101610b82565b9185610975565b82513d86823e3d90fd5b600435906001600160a01b038216820361057657565b67ffffffffffffffff8111610a3057604052565b634e487b7160e01b5f52604160045260245ffd5b610120810190811067ffffffffffffffff821117610a3057604052565b90601f8019910116810190811067ffffffffffffffff821117610a3057604052565b67ffffffffffffffff8111610a3057601f01601f191660200190565b81601f8201121561057657803590610ab682610a83565b92610ac46040519485610a61565b8284526020838301011161057657815f926020809301838601378301015290565b5f5b838110610af65750505f910152565b8181015183820152602001610ae7565b90602091610b1f81518092818552858086019101610ae5565b601f01601f1916010190565b5f546001600160a01b03163303610b3e57565b60405163118cdaa760e01b8152336004820152602490fd5b67ffffffffffffffff8111610a305760051b60200190565b51906001600160a01b038216820361057657565b81601f8201121561057657805191610b9983610b56565b92610ba76040519485610a61565b808452602092838086019260051b820101928311610576578301905b828210610bd1575050505090565b838091610bdd84610b6e565b815201910190610bc356fea26469706673582212208e20687197726eef3e1bcad06b3a5c3134009fb372164be88e5c9eb1bff121b264736f6c634300081400336080604052346200021657620019d4803803806200001d816200022e565b9283398101906080818303126200021657620000398162000254565b906020808201519060ff8216809203620002165760408301516001600160401b039390848111620002165781019086601f8301121562000216578151968588116200021a578760051b9284620000918186016200022e565b809a8152019085829582010192831162000216578501905b828210620001fc57506001600160a01b0395949392869250620000d0915060600162000254565b16968715620001e4575f80546001600160a01b031981168a178255604051999195919087167f8be0079c531659141344cd1fd0a4f28419497f9722a3daafe3b4186f6b6457e08780a36001808055600280546001600160a81b03191660089a909a1b610100600160a81b0316999099179190911790975551948511620001d057680100000000000000008511620001d05760055485600555808610620001a5575b509260058352818320925b858110620001915761176a88816200026a8239f35b84518216848201559382019386016200017c565b60058452868684862092830192015b828110620001c457505062000171565b858155018790620001b4565b634e487b7160e01b83526041600452602483fd5b604051631e4fbdf760e01b81525f6004820152602490fd5b8580916200020a8462000254565b815201910190620000a9565b5f80fd5b634e487b7160e01b5f52604160045260245ffd5b6040519190601f01601f191682016001600160401b038111838210176200021a57604052565b51906001600160a01b0382168203620002165756fe6080806040526004361015610012575f80fd5b5f3560e01c9081630107e47214611313575080630ae9c277146112325780631b66cb00146111ba5780631c68bf0014611044578063327107f7146110185780633f888cbb14610ff85780634a032e6d14610d395780635e7ffa6714610cd0578063715018a614610c795780637631919014610aa55780638627a555146104cc5780638b4a6f231461046c5780638da5cb5b14610445578063bad7d80114610197578063c6255626146101555763f2fde38b146100cc575f80fd5b34610151576020366003190112610151576100e56114bd565b6100ed611535565b6001600160a01b03908116908115610139575f54826001600160601b0360a01b8216175f55167f8be0079c531659141344cd1fd0a4f28419497f9722a3daafe3b4186f6b6457e05f80a3005b604051631e4fbdf760e01b81525f6004820152602490fd5b5f80fd5b34610151576020366003190112610151576004356005548110156101515761017e6020916113cb565b905460405160039290921b1c6001600160a01b03168152f35b346101515760403660031901126101515767ffffffffffffffff600435818111610151576101c99036906004016114ef565b6024356001600160a01b0381811691829003610151576101e7611535565b81156103f55760405193835191602095868181880195610208818389611477565b81016003815203019020541615610290575b7ff81ecd28776a8735cc06d219e4743db8b49b4c2194bd92117717b64884d88bee6102878587866102578288604051809381928851928391611477565b81016003815203019020816001600160601b0360a01b825416179055604051938493604085526040850190611498565b918301520390a1005b60045490600160401b8210156103ce576102b1600192838101600455611382565b9290926103e25785519182116103ce576102d5826102cf8554611400565b856115e8565b86601f831160011461034257936102879695938380610257958b98957ff81ecd28776a8735cc06d219e4743db8b49b4c2194bd92117717b64884d88bee9c965f93610337575b501b915f199060031b1c19161790555b9350955050919261021a565b8b015192508d61031b565b601f92919219821690845f52885f20915f5b8181106103b9575093838a97936102879a9997937ff81ecd28776a8735cc06d219e4743db8b49b4c2194bd92117717b64884d88bee9c9661025798106103a1575b5050811b01905561032b565b8a01515f1960f88460031b161c191690558b80610395565b89830151845592850192918a01918a01610354565b634e487b7160e01b5f52604160045260245ffd5b634e487b7160e01b5f525f60045260245ffd5b60405162461bcd60e51b815260206004820152602260248201527f5061746846696e6465723a20494e56414c49445f524f555445525f4144445245604482015261535360f01b6064820152608490fd5b34610151575f366003190112610151575f546040516001600160a01b039091168152602090f35b346101515760203660031901126101515760043560ff81168091036101515760207fb68ce7ddb33bf1631ee9045b7bb5051072e5b63f8cd4ee8e388859a7eda78cb9916104b7611535565b8060ff196002541617600255604051908152a1005b34610151576040366003190112610151576104e56114bd565b6040516104f181611438565b6060815260606020820152606060408201525f60608201525f60808201525f60a08201525f60c08201525f60e08201525f61010082015260243515610a605760025460081c6001600160a01b0390811690831614610a11575f5b6004548110156108dc5761055e81611382565b50604051905f9080549061057182611400565b91600181169081156108c55750600114610893575b5050600381528190036020019020546002546040516349c5403b60e11b81526001600160a01b0386811660048301526024803590830152600883901c8116604483015260ff92909216606482015260a06084820152915f918391168183816105f060a48201611560565b03925af1908115610888575f9161062c575b506060810151606084015110610622575b5061061d906115c4565b61054b565b915061061d610613565b3d9150815f823e61063d8282611455565b60208183810103126101515780519167ffffffffffffffff8311610151576101208383018284010312610151576040519261067784611438565b8083015167ffffffffffffffff811161015157828401601f8284870101011215610151578082850101516106aa81611708565b916106b86040519384611455565b818352602083019085870160208460051b83888b0101010111610151576020818689010101915b60208460051b83888b010101018310610870575050505084526020818401015167ffffffffffffffff811161015157828401601f8284870101011215610151578082850101519061072f82611708565b9161073d6040519384611455565b8083526020830185870160208360051b85888b0101010111610151576020838689010101905b60208360051b85888b01010101821061085457505050506020850152604081840101519267ffffffffffffffff841161015157828101601f858484010101121561015157838282010151926107b7846114d3565b906107c56040519283611455565b84825282016020858786860101010111610151576107f461010094610848966020808501918787010101611477565b6040860152606082820101516060860152610813608083830101611720565b608086015260a0828201015160a086015261083260c083830101611720565b60c08601520160e0818101519085015201611720565b61010082015284610602565b815162ffffff8116810361015157815260209182019101610763565b6020809161087d85611720565b8152019201916106df565b6040513d5f823e3d90fd5b9091505f5260205f205f905b8282106108b15750508101815f610586565b80548285015260209091019060010161089f565b60ff1916855250508015150282019050815f610586565b5060243560a08201526001600160a01b0391821660c082015260025460081c90911660808201526040516020808252825161012083830152805161014084018190526101608401949291909101905f5b8181106109f257505050602081810151838503601f190160408501528051808652948201949101905f5b8181106109d75750505061097b82936040830151601f19858303016060860152611498565b906060810151608084015260018060a01b0360808201511660a084015260a081015160c084015260018060a01b0360c08201511660e084015260e081015161010084015261010060018060a01b03910151166101208301520390f35b825162ffffff16865260209586019590920191600101610956565b82516001600160a01b031686526020958601959092019160010161092c565b60405162461bcd60e51b815260206004820152602160248201527f5061746846696e6465723a20544f4b454e5f49535f5441524745545f544f4b456044820152602760f91b6064820152608490fd5b60405162461bcd60e51b815260206004820152601a60248201527f5061746846696e6465723a20494e56414c49445f414d4f554e540000000000006044820152606490fd5b3461015157602036600319011261015157610abe6114bd565b610ac6611535565b6001600160a01b03908116908115610c2a57600554915f805f5b858110610bf9575b50610bb4575f1993808501908111610ba057610b399184610b0b610b14936113cb565b939054926113cb565b92909360031b1c169082549060031b9160018060a01b03809116831b921b1916179055565b600554918215610b8c577fbea12876694c4055c71f74308f752b9027cf3d554194000a366abddfc239a306936020930190610b73826113cb565b909182549160031b1b19169055600555604051908152a1005b634e487b7160e01b5f52603160045260245ffd5b634e487b7160e01b5f52601160045260245ffd5b60405162461bcd60e51b815260206004820152601b60248201527f5061746846696e6465723a20544f4b454e5f4e4f545f455849535400000000006044820152606490fd5b8385610c04836113cb565b90549060031b1c1614610c1f57610c1a906115c4565b610ae0565b915050600185610ae8565b60405162461bcd60e51b815260206004820152602160248201527f5061746846696e6465723a20494e56414c49445f544f4b454e5f4144445245536044820152605360f81b6064820152608490fd5b34610151575f36600319011261015157610c91611535565b5f80546001600160a01b0319811682556001600160a01b03167f8be0079c531659141344cd1fd0a4f28419497f9722a3daafe3b4186f6b6457e08280a3005b346101515760203660031901126101515760043567ffffffffffffffff811161015157610d0360209136906004016114ef565b81610d176040519283815193849201611477565b600390820190815281900382019020546040516001600160a01b039091168152f35b34610151576020806003193601126101515760043567ffffffffffffffff811161015157610d6b9036906004016114ef565b90610d74611535565b6040519180519282820193610d8a818387611477565b600390820190815281900383019020546001600160a01b031615610fb357919060405181818551610dbc818388611477565b810160038152030190206001600160601b0360a01b81541690555f925b6004549384811015610f8857610dee81611382565b5060405181549691905f81610e028a611400565b918282528882019460019b8a8d821691825f14610f6a575050600114610f30575b50610e3092500382611455565b5190208351862014610e525750610e4a91929394506115c4565b929190610dd9565b9193505f1991828101908111610ba057610e6e610e7591611382565b5091611382565b9190916103e257610e859161162d565b6004548015610b8c5701610e9881611382565b9490946103e25784610ecb7f705dbf555b63903777eca5aea4b4cf3021a8bae7d0e42662833f25c633c8828a9654611400565b80610ef1575b5050506004555b610eec604051928284938452830190611498565b0390a1005b5f92601f808311600114610f0c57505050555b848080610ed1565b8391610f29918694958552888520950160051c85019085016115d2565b5555610f04565b9150505f52865f2090895f925b828410610f56575050508187610e30928201018b610e23565b80548585018b0152928901928b9101610f3d565b60ff19168852610e3095151560051b85010192508d9150610e239050565b5091507f705dbf555b63903777eca5aea4b4cf3021a8bae7d0e42662833f25c633c8828a9250610ed8565b60405162461bcd60e51b815260048101839052601d60248201527f5061746846696e6465723a20444558206e6f7420737570706f727465640000006044820152606490fd5b34610151575f36600319011261015157602060ff60025416604051908152f35b34610151575f3660031901126101515760025460405160089190911c6001600160a01b03168152602090f35b346101515760203660031901126101515761105d6114bd565b611065611535565b6001600160a01b0390808216908115611175575f915f93600554945b858110611141575b505090916110fc57600160401b8310156103ce576110f36020926110d48560017fd1be2e90bd3d24839d9dd94ad871068e1f9688b02fa43f2a62c9975dfa9de2d797016005556113cb565b90919082549060031b9160018060a01b03809116831b921b1916179055565b604051908152a1005b60405162461bcd60e51b815260206004820152601f60248201527f5061746846696e6465723a20544f4b454e5f414c52454144595f4558495354006044820152606490fd5b828261114c836113cb565b90549060031b1c161461116757611162906115c4565b611081565b506001935085905080611089565b60405162461bcd60e51b815260206004820152601960248201527f5061746846696e6465723a20494e56414c49445f544f4b454e000000000000006044820152606490fd5b34610151576020366003190112610151577fe840382f117c32ae2da4f59b1209e4d1ada4400792a13d114577fe1eae60245660206111f66114bd565b6111fe611535565b60028054610100600160a81b031916600883901b610100600160a81b03161790556040516001600160a01b039091168152a1005b3461015157602080600319360112610151576004356004548110156101515761125a90611382565b9190916103e25760405191825f825461127281611400565b938484526001918683821691825f146112f15750506001146112b5575b505061129d92500383611455565b6112b1604051928284938452830190611498565b0390f35b8592505f52815f20905f915b8583106112d957505061129d9350820101858061128f565b805483890185015287945086939092019181016112c1565b925093505061129d94915060ff191682840152151560051b820101858061128f565b34610151575f366003190112610151576113378161133081611560565b0382611455565b60405180916020808301818452825180915281604085019301915f5b82811061136257505050500390f35b83516001600160a01b031685528695509381019392810192600101611353565b6004548110156113b75760045f527f8a35acfbc15ff81a39ae7d344fd709f28e8600b4aa8c65c6b64bfe7fe36bd19b01905f90565b634e487b7160e01b5f52603260045260245ffd5b6005548110156113b75760055f527f036b6384b5eca791c62761152d0c79bb0604c104a5fb6f4eb0703f3154bb3db001905f90565b90600182811c9216801561142e575b602083101461141a57565b634e487b7160e01b5f52602260045260245ffd5b91607f169161140f565b610120810190811067ffffffffffffffff8211176103ce57604052565b90601f8019910116810190811067ffffffffffffffff8211176103ce57604052565b5f5b8381106114885750505f910152565b8181015183820152602001611479565b906020916114b181518092818552858086019101611477565b601f01601f1916010190565b600435906001600160a01b038216820361015157565b67ffffffffffffffff81116103ce57601f01601f191660200190565b81601f8201121561015157803590611506826114d3565b926115146040519485611455565b8284526020838301011161015157815f926020809301838601378301015290565b5f546001600160a01b0316330361154857565b60405163118cdaa760e01b8152336004820152602490fd5b6005549081815260208091019160055f527f036b6384b5eca791c62761152d0c79bb0604c104a5fb6f4eb0703f3154bb3db0915f905b8282106115a4575050505090565b83546001600160a01b031685529384019360019384019390910190611596565b5f198114610ba05760010190565b8181106115dd575050565b5f81556001016115d2565b9190601f81116115f757505050565b611621925f5260205f20906020601f840160051c83019310611623575b601f0160051c01906115d2565b565b9091508190611614565b908082146117045761163f8154611400565b9067ffffffffffffffff82116103ce5781906116658261165f8654611400565b866115e8565b5f90601f8311600114611699575f9261168e575b50508160011b915f199060031b1c1916179055565b015490505f80611679565b81526020808220858352818320935090601f1985169083905b8282106116eb5750509084600195949392106116d3575b505050811b019055565b01545f1960f88460031b161c191690555f80806116c9565b84958192958501548155600180910196019401906116b2565b5050565b67ffffffffffffffff81116103ce5760051b60200190565b51906001600160a01b03821682036101515756fea26469706673582212200c14f1ddddfd75f39683740fb9174b7c376a9d61243c435b960f6a5cd98caf2564736f6c63430008140033",
  "linkReferences": {},
  "deployedLinkReferences": {},
  "immutableReferences": {},
  "inputSourceName": "project/contracts/TokenSwap.sol",
  "buildInfoId": "solc-0_8_20-9cd69f091ec92bd8d19c070c8437eabfe1acbe0f"
}