{
  "_format": "hh3-artifact-1",
  "contractName": "UniswapV3Router",
  "sourceName": "contracts/dex/uniswap/UniswapV3Router.sol",
  "abi": [
    {
      "inputs": [
        {
          "internalType": "address",
          "name": "_swapRouter",
          "type": "address"
        },
        {
          "internalType": "address",
          "name": "_quoter",
          "type": "address"
        },
        {
          "internalType": "address",
          "name": "_factory",
          "type": "address"
        },
        {
          "internalType": "address",
          "name": "_owner",
          "type": "address"
        },
        {
          "internalType": "address",
          "name": "_WETH9",
          "type": "address"
        },
        {
          "internalType": "address[]",
          "name": "_exchangeableTokens",
          "type": "address[]"
        }
      ],
      "stateMutability": "nonpayable",
      "type": "constructor"
    },
    {
      "inputs": [
        {
          "internalType": "address",
          "name": "owner",
          "type": "address"
        }
      ],
      "name": "OwnableInvalidOwner",
      "type": "error"
    },
    {
      "inputs": [
        {
          "internalType": "address",
          "name": "account",
          "type": "address"
        }
      ],
      "name": "OwnableUnauthorizedAccount",
      "type": "error"
    },
    {
      "inputs": [],
      "name": "ReentrancyGuardReentrantCall",
      "type": "error"
    },
    {
      "anonymous": false,
      "inputs": [
        {
          "indexed": false,
          "internalType": "address",
          "name": "token",
          "type": "address"
        }
      ],
      "name": "AddExchangeableToken",
      "type": "event"
    },
    {
      "anonymous": false,
      "inputs": [
        {
          "indexed": true,
          "internalType": "address",
          "name": "previousOwner",
          "type": "address"
        },
        {
          "indexed": true,
          "internalType": "address",
          "name": "newOwner",
          "type": "address"
        }
      ],
      "name": "OwnershipTransferred",
      "type": "event"
    },
    {
      "anonymous": false,
      "inputs": [
        {
          "indexed": false,
          "internalType": "address",
          "name": "token",
          "type": "address"
        }
      ],
      "name": "RemoveExchangeableToken",
      "type": "event"
    },
    {
      "anonymous": false,
      "inputs": [
        {
          "indexed": false,
          "internalType": "address",
          "name": "tokenA",
          "type": "address"
        },
        {
          "indexed": false,
          "internalType": "address",
          "name": "tokenB",
          "type": "address"
        },
        {
          "indexed": false,
          "internalType": "uint24",
          "name": "fee",
          "type": "uint24"
        }
      ],
      "name": "SetFeeTier",
      "type": "event"
    },
    {
      "anonymous": false,
      "inputs": [
        {
          "indexed": false,
          "internalType": "uint256",
          "name": "amountIn",
          "type": "uint256"
        },
        {
          "indexed": false,
          "internalType": "uint256",
          "name": "amountOut",
          "type": "uint256"
        },
        {
          "indexed": false,
          "internalType": "address",
          "name": "to",
          "type": "address"
        }
      ],
      "name": "SwapTokensForTokens",
      "type": "event"
    },
    {
      "inputs": [],
      "name": "WETH9",
      "outputs": [
        {
          "internalType": "contract WETH9Token",
          "name": "",
          "type": "address"
        }
      ],
      "stateMutability": "view",
      "type": "function"
    },
    {
      "inputs": [
        {
          "internalType": "address",
          "name": "token",
          "type": "address"
        }
      ],
      "name": "addExchangeableToken",
      "outputs": [],
      "stateMutability": "nonpayable",
      "type": "function"
    },
    {
      "inputs": [],
      "name": "dexName",
      "outputs": [
        {
          "internalType": "string",
          "name": "",
          "type": "string"
        }
      ],
      "stateMutability": "pure",
      "type": "function"
    },
    {
      "inputs": [
        {
          "internalType": "uint256",
          "name": "",
          "type": "uint256"
        }
      ],
      "name": "exchangeableTokens",
      "outputs": [
        {
          "internalType": "address",
          "name": "",
          "type": "address"
        }
      ],
      "stateMutability": "view",
      "type": "function"
    },
    {
      "inputs": [],
      "name": "factory",
      "outputs": [
        {
          "internalType": "contract IUniswapV3Factory",
          "name": "",
          "type": "address"
        }
      ],
      "stateMutability": "view",
      "type": "function"
    },
    {
      "inputs": [
        {
          "internalType": "address",
          "name": "token0",
          "type": "address"
        },
        {
          "internalType": "address",
          "name": "token1",
          "type": "address"
        }
      ],
      "name": "feeTiers",
      "outputs": [
        {
          "internalType": "uint24",
          "name": "fee",
          "type": "uint24"
        }
      ],
      "stateMutability": "view",
      "type": "function"
    },
    {
      "inputs": [],
      "name": "getAllExchangeableTokens",
      "outputs": [
        {
          "internalType": "address[]",
          "name": "",
          "type": "address[]"
        }
      ],
      "stateMutability": "view",
      "type": "function"
    },
    {
      "inputs": [
        {
          "internalType": "bytes",
          "name": "path",
          "type": "bytes"
        },
        {
          "internalType": "uint256",
          "name": "amountIn",
          "type": "uint256"
        }
      ],
      "name": "getAmountOutMulti",
      "outputs": [
        {
          "internalType": "uint256",
          "name": "",
          "type": "uint256"
        },
        {
          "internalType": "uint160[]",
          "name": "",
          "type": "uint160[]"
        },
        {
          "internalType": "uint32[]",
          "name": "",
          "type": "uint32[]"
        },
        {
          "internalType": "uint256",
          "name": "",
          "type": "uint256"
        }
      ],
      "stateMutability": "nonpayable",
      "type": "function"
    },
    {
      "inputs": [
        {
          "internalType": "address",
          "name": "tokenIn",
          "type": "address"
        },
        {
          "internalType": "address",
          "name": "tokenOut",
          "type": "address"
        },
        {
          "internalType": "uint24",
          "name": "fee",
          "type": "uint24"
        },
        {
          "internalType": "uint256",
          "name": "amountIn",
          "type": "uint256"
        },
        {
          "internalType": "uint160",
          "name": "sqrtPriceLimitX96",
          "type": "uint160"
        }
      ],
      "name": "getAmountOutSingle",
      "outputs": [
        {
          "internalType": "uint256",
          "name": "",
          "type": "uint256"
        },
        {
          "internalType": "uint160",
          "name": "",
          "type": "uint160"
        },
        {
          "internalType": "uint32",
          "name": "",
          "type": "uint32"
        },
        {
          "internalType": "uint256",
          "name": "",
          "type": "uint256"
        }
      ],
      "stateMutability": "nonpayable",
      "type": "function"
    },
    {
      "inputs": [
        {
          "internalType": "address",
          "name": "tokenIn",
          "type": "address"
        },
        {
          "internalType": "uint256",
          "name": "amountIn",
          "type": "uint256"
        },
        {
          "internalType": "address",
          "name": "tokenOut",
          "type": "address"
        },
        {
          "internalType": "uint8",
          "name": "maxHops",
          "type": "uint8"
        }
      ],
      "name": "getAmountsOut",
      "outputs": [
        {
          "components": [
            {
              "internalType": "address[]",
              "name": "path",
              "type": "address[]"
            },
            {
              "internalType": "bytes",
              "name": "pathBytes",
              "type": "bytes"
            },
            {
              "internalType": "uint256",
              "name": "outputAmount",
              "type": "uint256"
            },
            {
              "internalType": "uint256",
              "name": "inputAmount",
              "type": "uint256"
            },
            {
              "internalType": "address",
              "name": "dexRouter",
              "type": "address"
            }
          ],
          "internalType": "struct Model.SwapPath",
          "name": "swapPath",
          "type": "tuple"
        }
      ],
      "stateMutability": "nonpayable",
      "type": "function"
    },
    {
      "inputs": [],
      "name": "owner",
      "outputs": [
        {
          "internalType": "address",
          "name": "",
          "type": "address"
        }
      ],
      "stateMutability": "view",
      "type": "function"
    },
    {
      "inputs": [],
      "name": "quoter",
      "outputs": [
        {
          "internalType": "contract IQuoterV2",
          "name": "",
          "type": "address"
        }
      ],
      "stateMutability": "view",
      "type": "function"
    },
    {
      "inputs": [
        {
          "internalType": "address",
          "name": "token",
          "type": "address"
        }
      ],
      "name": "removeExchangeableToken",
      "outputs": [],
      "stateMutability": "nonpayable",
      "type": "function"
    },
    {
      "inputs": [],
      "name": "renounceOwnership",
      "outputs": [],
      "stateMutability": "nonpayable",
      "type": "function"
    },
    {
      "inputs": [
        {
          "internalType": "address",
          "name": "tokenA",
          "type": "address"
        },
        {
          "internalType": "address",
          "name": "tokenB",
          "type": "address"
        },
        {
          "internalType": "uint24",
          "name": "fee",
          "type": "uint24"
        }
      ],
      "name": "setFeeTier",
      "outputs": [],
      "stateMutability": "nonpayable",
      "type": "function"
    },
    {
      "inputs": [],
      "name": "swapRouter",
      "outputs": [
        {
          "internalType": "contract ISwapRouter",
          "name": "",
          "type": "address"
        }
      ],
      "stateMutability": "view",
      "type": "function"
    },
    {
      "inputs": [
        {
          "components": [
            {
              "internalType": "address[]",
              "name": "path",
              "type": "address[]"
            },
            {
              "internalType": "bytes",
              "name": "pathBytes",
              "type": "bytes"
            },
            {
              "internalType": "uint256",
              "name": "outputAmount",
              "type": "uint256"
            },
            {
              "internalType": "uint256",
              "name": "inputAmount",
              "type": "uint256"
            },
            {
              "internalType": "address",
              "name": "dexRouter",
              "type": "address"
            }
          ],
          "internalType": "struct Model.SwapPath",
          "name": "swapPath",
          "type": "tuple"
        },
        {
          "internalType": "address",
          "name": "tokenIn",
          "type": "address"
        },
        {
          "internalType": "uint256",
          "name": "amountIn",
          "type": "uint256"
        },
        {
          "internalType": "uint256",
          "name": "amountOutMin",
          "type": "uint256"
        },
        {
          "internalType": "address",
          "name": "to",
          "type": "address"
        },
        {
          "internalType": "uint256",
          "name": "deadline",
          "type": "uint256"
        }
      ],
      "name": "swapTokensForTokens",
      "outputs": [
        {
          "internalType": "uint256",
          "name": "",
          "type": "uint256"
        }
      ],
      "stateMutability": "payable",
      "type": "function"
    },
    {
      "inputs": [
        {
          "internalType": "address",
          "name": "newOwner",
          "type": "address"
        }
      ],
      "name": "transferOwnership",
      "outputs": [],
      "stateMutability": "nonpayable",
      "type": "function"
    }
  ],
  "bytecode": "0x6040610100815234620003be5762002150803803806200001f81620003d6565b92833981019060c081830312620003be576200003b81620003fc565b916020926200004c848401620003fc565b936200005a868501620003fc565b6200006860608601620003fc565b936200007760808701620003fc565b60a08701516001600160401b0397888211620003be57019282601f85011215620003be57835192888411620003c2578360051b9486620000b9818801620003d6565b809681520190878297820101928311620003be5787809101915b838310620003a3575050506001600160a01b0397881699905089156200038c575f80546001600160a01b031981168c1782558c519b919891908a167f8be0079c531659141344cd1fd0a4f28419497f9722a3daafe3b4186f6b6457e08a80a360019a8b80558b865111156200033b57508816908115620002f7578816918215620002b3578816918215620002715760a05260805260c052851660e052519485116200025d576801000000000000000085116200025d576002548560025580861062000232575b509260028352818320925b8581106200021e578751611d3e90816200041282396080518181816102df015261076c015260a051818181610255015281816116bf01526117a6015260c05181818161029a01526111a1015260e0518181816106a9015281816106ed0152818161072a01528181610a1001528181610f930152610fd60152f35b8451821684820155938201938601620001a4565b60028452868684862092830192015b8281106200025157505062000199565b85815501879062000241565b634e487b7160e01b83526041600452602483fd5b6064878d519062461bcd60e51b825280600483015260248201527f556e69737761705633526f757465723a20494e56414c49445f464143544f52596044820152fd5b8b5162461bcd60e51b815260048101889052601f60248201527f556e69737761705633526f757465723a20494e56414c49445f51554f544552006044820152606490fd5b8b5162461bcd60e51b815260048101889052601f60248201527f556e69737761705633526f757465723a20494e56414c49445f524f55544552006044820152606490fd5b62461bcd60e51b815260048101889052602660248201527f556e69737761705633526f757465723a20494e56414c49445f544f4b454e535f6044820152650988a9c8ea8960d31b6064820152608490fd5b8a51631e4fbdf760e01b81525f6004820152602490fd5b8190620003b084620003fc565b8152019101908790620000d3565b5f80fd5b634e487b7160e01b5f52604160045260245ffd5b6040519190601f01601f191682016001600160401b03811183821017620003c257604052565b51906001600160a01b0382168203620003be5756fe6080806040526004361015610012575f80fd5b5f90813560e01c908162c1520c146112f75750806304fe3fcb1461113257806312009f27146110c157806320afb93b14611049578063315a0cbb146110055780634aa4a4fc14610fc05780635fbd8ce314610c795780636436675814610afb5780636fd52fc314610562578063715018a6146105095780638300d03c146103cd5780638da5cb5b146103a65780639206857c1461030e578063c31c9c07146102c9578063c45a015514610284578063c6bbd5a71461023f578063ec4c259a1461016d5763f2fde38b146100e3575f80fd5b3461016a57602036600319011261016a576100fc611344565b610104611541565b6001600160a01b03908116908115610151575f54826001600160601b0360a01b8216175f55167f8be0079c531659141344cd1fd0a4f28419497f9722a3daafe3b4186f6b6457e05f80a380f35b604051631e4fbdf760e01b815260048101849052602490fd5b80fd5b503461016a57604036600319011261016a5760043567ffffffffffffffff811161023b576101a26101ab9136906004016114eb565b60243590611766565b939091604051936080850190855260209060808287015282518091528160a08701930190845b81811061021e5750505084820360408601528080855193848152019401925b828110610204578580868960608301520390f35b835163ffffffff16855293810193928101926001016101f0565b82516001600160a01b0316855293830193918301916001016101d1565b5080fd5b503461016a578060031936011261016a576040517f00000000000000000000000000000000000000000000000000000000000000006001600160a01b03168152602090f35b503461016a578060031936011261016a576040517f00000000000000000000000000000000000000000000000000000000000000006001600160a01b03168152602090f35b503461016a578060031936011261016a576040517f00000000000000000000000000000000000000000000000000000000000000006001600160a01b03168152602090f35b503461016a578060031936011261016a57604051809182600254808452602080940190600284527f405787fa12a823e0f2b7631cc41b3ba8828b3321ca811111fa75cd3aa3bb5ace935b858282106103875750505061036f925003836114b1565b610383604051928284938452830190611429565b0390f35b85546001600160a01b0316845260019586019588955093019201610358565b503461016a578060031936011261016a57546040516001600160a01b039091168152602090f35b503461016a5760208060031936011261023b576103e8611344565b906103f1611541565b60028054929091906001600160a01b0390811690855b858110610412578680f35b818361041d836113e0565b929054600393841b1c161461043b57506104369061156c565b610407565b92939491905f97969719978881019081116104f5579061046e8361046161048d946113e0565b905490881b1c16916113e0565b90919082549060031b9160018060a01b03809116831b921b1916179055565b81549687156104e1577fa6863cb3fde3a64428608c06b62d713381ec5816aaceb74bf5d1865d847b3e88969701926104c4846113e0565b81939154921b1b1916905555604051908152a15f80808080808680f35b634e487b7160e01b87526031600452602487fd5b634e487b7160e01b88526011600452602488fd5b503461016a578060031936011261016a57610522611541565b5f80546001600160a01b0319811682556001600160a01b03167f8be0079c531659141344cd1fd0a4f28419497f9722a3daafe3b4186f6b6457e08280a380f35b5060031960c03682011261023b576004359167ffffffffffffffff9182841161023b5760a090843603011261016a576040519261059e84611465565b8060040135838111610adb57810136602382011215610adb576004810135906105c6826114d3565b916105d460405193846114b1565b8083526024602084019160051b83010191368311610af757602401905b828210610adf5750505084526024810135838111610adb5761063e9161061f608492600436918401016114eb565b6020870152604481013560408701526064810135606087015201611374565b608084015261064b61135e565b60843592906001600160a01b0384168403610adb57600260015414610ac957600260015580604435914260a43510610a8457600287515110610a3f576001600160a01b031680158015610a0d575b156109aa575050503415610956577f00000000000000000000000000000000000000000000000000000000000000006001600160a01b03163b1561023b57604051630d0e30db60e41b8152908282600481347f00000000000000000000000000000000000000000000000000000000000000006001600160a01b03165af1801561094b57610927575b5034939192917f00000000000000000000000000000000000000000000000000000000000000006001600160a01b031691505b60405163095ea7b360e01b81526001600160a01b037f00000000000000000000000000000000000000000000000000000000000000008116600483018190526024830188905293602091839160449183918a91165af1801561091c57916020929183926108ef575b500151604051906107cd82611465565b81528181019260018060a01b038516845261082986604084019360a435855260608101968a88526080820160643581526040519889978896879563c04b8d5960e01b87528b60048801525160a0602488015260c48701906113bb565b93516001600160a01b031660448601525160648501525160848401525160a483015203925af19283156108e35780936108aa575b6020847fc8cb4ba3fba25db66c1fb1e23b9b0ebaa159932a0140edc1a85b5484ffd3ee9d60608887604051918252848683015260018060a01b03166040820152a160018055604051908152f35b909192506020823d6020116108db575b816108c7602093836114b1565b8101031261016a575051906060602061085d565b3d91506108ba565b604051903d90823e3d90fd5b61090e90833d8511610915575b61090681836114b1565b81019061159c565b505f6107bd565b503d6108fc565b6040513d87823e3d90fd5b8111610937576040525f80610722565b634e487b7160e01b82526041600452602482fd5b6040513d85823e3d90fd5b60405162461bcd60e51b815260206004820152602660248201527f556e69737761705633526f757465723a20494e53554646494349454e545f45546044820152651217d4d1539560d21b6064820152608490fd5b8495949193506020906064604098949851809481936323b872dd60e01b83523360048401523060248401528b60448401525af1801561091c576109ee575b50610755565b610a069060203d6020116109155761090681836114b1565b505f6109e8565b507f00000000000000000000000000000000000000000000000000000000000000006001600160a01b03168114610699565b60405162461bcd60e51b815260206004820152601d60248201527f556e69737761705633526f757465723a20494e56414c49445f504154480000006044820152606490fd5b60405162461bcd60e51b815260206004820152601860248201527f556e69737761705633526f757465723a204558504952454400000000000000006044820152606490fd5b604051633ee5aeb560e01b8152600490fd5b8280fd5b60208091610aec84611374565b8152019101906105f1565b8580fd5b503461016a57602036600319011261016a57610b15611344565b610b1d611541565b6001600160a01b0390808216908115610c34576002548493845b828110610c00575b5050909192610baf5768010000000000000000811015610b9b5791610b9160209261046e8560017fcfd6cf093150ee2a35dca43410ca62f1eebf9425a3c04d661d871803b1181bbf97016002556113e0565b604051908152a180f35b634e487b7160e01b84526041600452602484fd5b60405162461bcd60e51b8152602060048201526024808201527f556e69737761705633526f757465723a20544f4b454e5f414c52454144595f45604482015263161254d560e21b6064820152608490fd5b8482610c0b836113e0565b90549060031b1c1614610c2657610c219061156c565b610b37565b50600194505f905080610b3f565b60405162461bcd60e51b815260206004820152601e60248201527f556e69737761705633526f757465723a20494e56414c49445f544f4b454e00006044820152606490fd5b503461016a57608036600319011261016a57610c93611344565b906044356001600160a01b038116900361016a576064359060ff8216820361016a578260405193610cc385611465565b60608086526020860152604085018390526001600160a01b031615610f90575b6024356060850152306080850152610d04610cff60025461158e565b61193c565b91610d0e836114d3565b92610d1c60405194856114b1565b808452610d2b601f19916114d3565b01815b818110610f7f57505060405180606081011067ffffffffffffffff6060830111176109375760608101604052600281526040366020830137610d6f816115e6565b6001600160a01b0384169052805160011015610f6b576044356001600160a01b03166040820152610d9f846115e6565b52610da9836115e6565b506001600160a01b0382165f9081526003602052604090206044356001600160a01b0316825260205260408120549062ffffff8216610ece575b5050600160025b60ff8516811115610e595785604051809160208252610e2e610e18825160a0602086015260c0850190611429565b6020830151848203601f190160408601526113bb565b906040810151606084015260608101516080840152608060018060a01b039101511660a08301520390f35b85600254610e668361158e565b8110610ec157610eba9160ff9394610e80610eb4936115b4565b9088610e93610e8e89611607565b6115b4565b926001600160a01b038a16610ea7856115e6565b526001604435948b611a10565b9261156c565b9050610dea565b5050610eba60ff9161156c565b604051916001600160601b031990818560601b16602085015262ffffff60e81b9060e81b16603484015260443560601b166037830152602b825281606081011067ffffffffffffffff606084011117610f57575060608101604052610f37606086015182611766565b50505060408601526020850152610f4d826115e6565b5184525f80610de3565b634e487b7160e01b81526041600452602490fd5b634e487b7160e01b82526032600452602482fd5b806060602080938801015201610d2e565b507f00000000000000000000000000000000000000000000000000000000000000006001600160a01b0316610ce3565b503461016a578060031936011261016a576040517f00000000000000000000000000000000000000000000000000000000000000006001600160a01b03168152602090f35b503461016a57602036600319011261016a576004359060025482101561016a576020611030836113e0565b905460405160039290921b1c6001600160a01b03168152f35b503461016a5760a036600319011261016a57611063611344565b9061106c61135e565b91611075611388565b608435936001600160a01b0393848616860361016a57509363ffffffff926110a3926080966064359261163a565b93929490916040519586521660208501521660408301526060820152f35b503461016a578060031936011261016a576040516040810181811067ffffffffffffffff82111761111e5761038392506040526009815268556e6973776170563360b81b60208201526040519182916020835260208301906113bb565b634e487b7160e01b83526041600452602483fd5b503461016a57606036600319011261016a5761114c611344565b9061115561135e565b61115d611388565b92611166611541565b604051630b4c774160e11b81526001600160a01b038281166004830152838116602483015262ffffff861660448301526020959186816064817f000000000000000000000000000000000000000000000000000000000000000086165afa9081156112ec5790829187916112b2575b50161561126d57828116808652600380885260408088209387168852928852828720805462ffffff1990811662ffffff9690961695861790915590885282872091875296528085208054909616821790955584516001600160a01b03928316815291909216602082015292830152907f95826e4054d946f6d853d8dba444a92ae9bd013e502250f4b58c4abd69437f4190606090a180f35b60405162461bcd60e51b815260048101879052601f60248201527f556e69737761705633526f757465723a20504f4f4c5f4e4f545f4558495354006044820152606490fd5b809250888092503d83116112e5575b6112cb81836114b1565b81010312610af757518181168103610af75781905f6111d5565b503d6112c1565b6040513d88823e3d90fd5b90503461023b57604036600319011261023b5762ffffff604060209361131b611344565b61132361135e565b6001600160a01b039182168352600387528383209116825285522054168152f35b600435906001600160a01b038216820361135a57565b5f80fd5b602435906001600160a01b038216820361135a57565b35906001600160a01b038216820361135a57565b6044359062ffffff8216820361135a57565b5f5b8381106113ab5750505f910152565b818101518382015260200161139c565b906020916113d48151809281855285808601910161139a565b601f01601f1916010190565b6002548110156114155760025f527f405787fa12a823e0f2b7631cc41b3ba8828b3321ca811111fa75cd3aa3bb5ace01905f90565b634e487b7160e01b5f52603260045260245ffd5b9081518082526020808093019301915f5b828110611448575050505090565b83516001600160a01b03168552938101939281019260010161143a565b60a0810190811067ffffffffffffffff82111761148157604052565b634e487b7160e01b5f52604160045260245ffd5b6020810190811067ffffffffffffffff82111761148157604052565b90601f8019910116810190811067ffffffffffffffff82111761148157604052565b67ffffffffffffffff81116114815760051b60200190565b81601f8201121561135a5780359067ffffffffffffffff82116114815760405192611520601f8401601f1916602001856114b1565b8284526020838301011161135a57815f926020809301838601378301015290565b5f546001600160a01b0316330361155457565b60405163118cdaa760e01b8152336004820152602490fd5b5f19811461157a5760010190565b634e487b7160e01b5f52601160045260245ffd5b5f1981019190821161157a57565b9081602091031261135a5751801515810361135a5790565b906115be826114d3565b6115cb60405191826114b1565b82815280926115dc601f19916114d3565b0190602036910137565b8051156114155760200190565b80518210156114155760209160051b010190565b906001820180921161157a57565b51906001600160a01b038216820361135a57565b519063ffffffff8216820361135a57565b9194939092946040519361164d85611465565b60018060a01b03968780951686528460208701921682526040860190815284606087019262ffffff80951684528160808901961686528160405198636352813560e11b8a525116600489015251166024870152516044860152511660648401525116608482015260808160a4815f80977f0000000000000000000000000000000000000000000000000000000000000000165af190839184928186938793611709575b5061170057505050508180918190565b94509192909190565b9450925050506080823d821161175e575b81611727608093836114b1565b8101031261175a5781519061173e60208401611615565b606061174c60408601611629565b94015192909392915f6116f0565b8380fd5b3d915061171a565b61178f90929192604093845192839263cdca175360e01b845286600485015260448401906113bb565b906024830152815f93849203818360018060a01b037f0000000000000000000000000000000000000000000000000000000000000000165af190829183928185938693611811575b5061180857505050508251926117ec84611495565b81845251916117fa83611495565b818352813681378193929190565b95509193909250565b9350935050503d8084833e61182681836114b1565b81019160808284031261175a57815191602090818101519167ffffffffffffffff9283811161191c5782019286601f8501121561191c57835193611869856114d3565b946118768c5196876114b1565b808652838087019160051b830101918983116119385784809101915b83831061192057505050508983015190811161191c5782019580601f8801121561191c5786516118c1816114d3565b976118ce8c51998a6114b1565b81895283808a019260051b820101928311611918578301905b82821061190157505050506060015192909392915f6117d7565b83809161190d84611629565b8152019101906118e7565b8980fd5b8780fd5b819061192b84611615565b8152019101908490611892565b8a80fd5b80156119b1576001908182915b808311156119575750505090565b909192835f1981011161199d576001848303019282841161199d5783810293818504149015171561199d5782810180911161199d57611996909361156c565b9190611949565b60245f634e487b7160e01b81526011600452fd5b50600190565b6040516119c381611495565b5f8152905f368137565b6020611a0e9193929360405194816119ee879351809286808701910161139a565b8201611a028251809386808501910161139a565b010380855201836114b1565b565b9097969795939195949294611a25815161158e565b8714611b0c575f9687945b600254861015611b0057868b91611a5e611a49896113e0565b905460039190911b1c6001600160a01b031690565b6001600160a01b038781169116148015611aed575b611ae05790611ac492916001611a898a8d6115f3565b52611ab2611a99611a498b6113e0565b611aa387896115f3565b6001600160a01b039091169052565b878b611abd87611607565b888a611a10565b611ada909589611ad4828b6115f3565b5261156c565b94611a30565b969050611ada915061156c565b50611af8888b6115f3565b511515611a73565b99505050505050505050565b9450509391611aa3611b2192979693856115f3565b611b2b82516115b4565b611b3586856115f3565b52611b4085846115f3565b50611b496119b7565b925f935b8351851015611cb557611b87611b73611b6687876115f3565b516001600160a01b031690565b611aa387611b818b876115f3565b516115f3565b8415611c7a57611bee611be5611bc4611bab611b66611ba58a61158e565b896115f3565b6001600160a01b03165f90815260036020526040902090565b611bd1611b6689896115f3565b60018060a01b03165f5260205260405f2090565b5462ffffff1690565b9062ffffff821615611c6657611c6091611c5a91611c55611c12611b668a8a6115f3565b60405160e89490941b6001600160e81b031916602085015260601b6bffffffffffffffffffffffff1916602384015282603781015b03601f1981018452836114b1565b6119cd565b9461156c565b93611b4d565b50505093915050611c779150611607565b90565b611c5a611c47611c6092611c55611c94611b668a8a6115f3565b604051938491602083016014916001600160601b03199060601b1681520190565b925090949250611c7793611ccd606082015184611766565b5050509184604083019182518511611ceb575b505050505050611607565b602094611cf893526115f3565b51815201525f8080808481611ce056fea2646970667358221220e6aaec950bda5a52c425fcd1db8159ad04169792ab6013bc63f8247004a2ff5664736f6c63430008140033",
  "linkReferences": {},
  "deployedLinkReferences": {},
  "immutableReferences": {
    "688": [
      {
        "length": 32,
        "start": 735
      },
      {
        "length": 32,
        "start": 1900
      }
    ],
    "691": [
      {
        "length": 32,
        "start": 597
      },
      {
        "length": 32,
        "start": 5823
      },
      {
        "length": 32,
        "start": 6054
      }
    ],
    "694": [
      {
        "length": 32,
        "start": 666
      },
      {
        "length": 32,
        "start": 4513
      }
    ],
    "697": [
      {
        "length": 32,
        "start": 1705
      },
      {
        "length": 32,
        "start": 1773
      },
      {
        "length": 32,
        "start": 1834
      },
      {
        "length": 32,
        "start": 2576
      },
      {
        "length": 32,
        "start": 3987
      },
      {
        "length": 32,
        "start": 4054
      }
    ]
  },
  "inputSourceName": "project/contracts/dex/uniswap/UniswapV3Router.sol",
  "buildInfoId": "solc-0_8_20-92e4cc47b587693dc51661d05473a9924022415c"
}