{
  "_format": "hh3-artifact-1",
  "contractName": "UniswapV3Router",
  "sourceName": "contracts/dex/uniswap/UniswapV3Router.sol",
  "abi": [
    {
      "inputs": [
        {
          "internalType": "address",
          "name": "_swapRouter",
          "type": "address"
        },
        {
          "internalType": "address",
          "name": "_quoter",
          "type": "address"
        },
        {
          "internalType": "address",
          "name": "_factory",
          "type": "address"
        },
        {
          "internalType": "address",
          "name": "_owner",
          "type": "address"
        },
        {
          "internalType": "address",
          "name": "_WETH9",
          "type": "address"
        }
      ],
      "stateMutability": "nonpayable",
      "type": "constructor"
    },
    {
      "inputs": [
        {
          "internalType": "address",
          "name": "owner",
          "type": "address"
        }
      ],
      "name": "OwnableInvalidOwner",
      "type": "error"
    },
    {
      "inputs": [
        {
          "internalType": "address",
          "name": "account",
          "type": "address"
        }
      ],
      "name": "OwnableUnauthorizedAccount",
      "type": "error"
    },
    {
      "inputs": [],
      "name": "ReentrancyGuardReentrantCall",
      "type": "error"
    },
    {
      "anonymous": false,
      "inputs": [
        {
          "indexed": false,
          "internalType": "address",
          "name": "token",
          "type": "address"
        }
      ],
      "name": "AddExchangeableToken",
      "type": "event"
    },
    {
      "anonymous": false,
      "inputs": [
        {
          "indexed": true,
          "internalType": "address",
          "name": "previousOwner",
          "type": "address"
        },
        {
          "indexed": true,
          "internalType": "address",
          "name": "newOwner",
          "type": "address"
        }
      ],
      "name": "OwnershipTransferred",
      "type": "event"
    },
    {
      "anonymous": false,
      "inputs": [
        {
          "indexed": false,
          "internalType": "address",
          "name": "token",
          "type": "address"
        }
      ],
      "name": "RemoveExchangeableToken",
      "type": "event"
    },
    {
      "anonymous": false,
      "inputs": [
        {
          "indexed": false,
          "internalType": "address",
          "name": "tokenA",
          "type": "address"
        },
        {
          "indexed": false,
          "internalType": "address",
          "name": "tokenB",
          "type": "address"
        },
        {
          "indexed": false,
          "internalType": "uint24",
          "name": "fee",
          "type": "uint24"
        }
      ],
      "name": "SetFeeTier",
      "type": "event"
    },
    {
      "anonymous": false,
      "inputs": [
        {
          "indexed": false,
          "internalType": "uint256",
          "name": "amountIn",
          "type": "uint256"
        },
        {
          "indexed": false,
          "internalType": "address",
          "name": "inputToken",
          "type": "address"
        },
        {
          "indexed": false,
          "internalType": "uint256",
          "name": "amountOut",
          "type": "uint256"
        },
        {
          "indexed": false,
          "internalType": "address",
          "name": "to",
          "type": "address"
        }
      ],
      "name": "SwapTokensForTokens",
      "type": "event"
    },
    {
      "inputs": [],
      "name": "WETH9",
      "outputs": [
        {
          "internalType": "contract WETH9Token",
          "name": "",
          "type": "address"
        }
      ],
      "stateMutability": "view",
      "type": "function"
    },
    {
      "inputs": [],
      "name": "dexName",
      "outputs": [
        {
          "internalType": "string",
          "name": "",
          "type": "string"
        }
      ],
      "stateMutability": "pure",
      "type": "function"
    },
    {
      "inputs": [],
      "name": "factory",
      "outputs": [
        {
          "internalType": "contract IUniswapV3Factory",
          "name": "",
          "type": "address"
        }
      ],
      "stateMutability": "view",
      "type": "function"
    },
    {
      "inputs": [
        {
          "internalType": "address",
          "name": "token0",
          "type": "address"
        },
        {
          "internalType": "address",
          "name": "token1",
          "type": "address"
        }
      ],
      "name": "feeTiers",
      "outputs": [
        {
          "internalType": "uint24",
          "name": "fee",
          "type": "uint24"
        }
      ],
      "stateMutability": "view",
      "type": "function"
    },
    {
      "inputs": [
        {
          "internalType": "bytes",
          "name": "path",
          "type": "bytes"
        },
        {
          "internalType": "uint256",
          "name": "amountIn",
          "type": "uint256"
        }
      ],
      "name": "getAmountOutMulti",
      "outputs": [
        {
          "internalType": "uint256",
          "name": "",
          "type": "uint256"
        },
        {
          "internalType": "uint160[]",
          "name": "",
          "type": "uint160[]"
        },
        {
          "internalType": "uint32[]",
          "name": "",
          "type": "uint32[]"
        },
        {
          "internalType": "uint256",
          "name": "",
          "type": "uint256"
        }
      ],
      "stateMutability": "nonpayable",
      "type": "function"
    },
    {
      "inputs": [
        {
          "internalType": "address",
          "name": "tokenIn",
          "type": "address"
        },
        {
          "internalType": "address",
          "name": "tokenOut",
          "type": "address"
        },
        {
          "internalType": "uint24",
          "name": "fee",
          "type": "uint24"
        },
        {
          "internalType": "uint256",
          "name": "amountIn",
          "type": "uint256"
        },
        {
          "internalType": "uint160",
          "name": "sqrtPriceLimitX96",
          "type": "uint160"
        }
      ],
      "name": "getAmountOutSingle",
      "outputs": [
        {
          "internalType": "uint256",
          "name": "",
          "type": "uint256"
        },
        {
          "internalType": "uint160",
          "name": "",
          "type": "uint160"
        },
        {
          "internalType": "uint32",
          "name": "",
          "type": "uint32"
        },
        {
          "internalType": "uint256",
          "name": "",
          "type": "uint256"
        }
      ],
      "stateMutability": "nonpayable",
      "type": "function"
    },
    {
      "inputs": [
        {
          "internalType": "address",
          "name": "tokenIn",
          "type": "address"
        },
        {
          "internalType": "uint256",
          "name": "amountIn",
          "type": "uint256"
        },
        {
          "internalType": "address",
          "name": "tokenOut",
          "type": "address"
        },
        {
          "internalType": "uint8",
          "name": "maxHops",
          "type": "uint8"
        },
        {
          "internalType": "address[]",
          "name": "supportedTokens",
          "type": "address[]"
        }
      ],
      "name": "getAmountsOut",
      "outputs": [
        {
          "components": [
            {
              "internalType": "address[]",
              "name": "path",
              "type": "address[]"
            },
            {
              "internalType": "uint24[]",
              "name": "fees",
              "type": "uint24[]"
            },
            {
              "internalType": "bytes",
              "name": "pathBytes",
              "type": "bytes"
            },
            {
              "internalType": "uint256",
              "name": "outputAmount",
              "type": "uint256"
            },
            {
              "internalType": "address",
              "name": "outputToken",
              "type": "address"
            },
            {
              "internalType": "uint256",
              "name": "inputAmount",
              "type": "uint256"
            },
            {
              "internalType": "address",
              "name": "inputToken",
              "type": "address"
            },
            {
              "internalType": "uint256",
              "name": "gasEstimate",
              "type": "uint256"
            },
            {
              "internalType": "address",
              "name": "dexRouter",
              "type": "address"
            }
          ],
          "internalType": "struct Model.SwapPath",
          "name": "swapPath",
          "type": "tuple"
        }
      ],
      "stateMutability": "nonpayable",
      "type": "function"
    },
    {
      "inputs": [],
      "name": "owner",
      "outputs": [
        {
          "internalType": "address",
          "name": "",
          "type": "address"
        }
      ],
      "stateMutability": "view",
      "type": "function"
    },
    {
      "inputs": [],
      "name": "quoter",
      "outputs": [
        {
          "internalType": "contract IQuoterV2",
          "name": "",
          "type": "address"
        }
      ],
      "stateMutability": "view",
      "type": "function"
    },
    {
      "inputs": [],
      "name": "renounceOwnership",
      "outputs": [],
      "stateMutability": "nonpayable",
      "type": "function"
    },
    {
      "inputs": [
        {
          "internalType": "address",
          "name": "tokenA",
          "type": "address"
        },
        {
          "internalType": "address",
          "name": "tokenB",
          "type": "address"
        },
        {
          "internalType": "uint24",
          "name": "fee",
          "type": "uint24"
        }
      ],
      "name": "setFeeTier",
      "outputs": [],
      "stateMutability": "nonpayable",
      "type": "function"
    },
    {
      "inputs": [],
      "name": "swapRouter",
      "outputs": [
        {
          "internalType": "contract ISwapRouter02",
          "name": "",
          "type": "address"
        }
      ],
      "stateMutability": "view",
      "type": "function"
    },
    {
      "inputs": [
        {
          "components": [
            {
              "internalType": "address[]",
              "name": "path",
              "type": "address[]"
            },
            {
              "internalType": "uint24[]",
              "name": "fees",
              "type": "uint24[]"
            },
            {
              "internalType": "bytes",
              "name": "pathBytes",
              "type": "bytes"
            },
            {
              "internalType": "uint256",
              "name": "outputAmount",
              "type": "uint256"
            },
            {
              "internalType": "address",
              "name": "outputToken",
              "type": "address"
            },
            {
              "internalType": "uint256",
              "name": "inputAmount",
              "type": "uint256"
            },
            {
              "internalType": "address",
              "name": "inputToken",
              "type": "address"
            },
            {
              "internalType": "uint256",
              "name": "gasEstimate",
              "type": "uint256"
            },
            {
              "internalType": "address",
              "name": "dexRouter",
              "type": "address"
            }
          ],
          "internalType": "struct Model.SwapPath",
          "name": "swapPath",
          "type": "tuple"
        },
        {
          "internalType": "address",
          "name": "recipient",
          "type": "address"
        },
        {
          "internalType": "uint256",
          "name": "amountOutMin",
          "type": "uint256"
        },
        {
          "internalType": "uint256",
          "name": "deadline",
          "type": "uint256"
        }
      ],
      "name": "swapTokensForTokens",
      "outputs": [
        {
          "internalType": "uint256",
          "name": "",
          "type": "uint256"
        }
      ],
      "stateMutability": "payable",
      "type": "function"
    },
    {
      "inputs": [
        {
          "internalType": "address",
          "name": "newOwner",
          "type": "address"
        }
      ],
      "name": "transferOwnership",
      "outputs": [],
      "stateMutability": "nonpayable",
      "type": "function"
    }
  ],
  "bytecode": "0x610100346200025457601f62001d6b38819003918201601f191683019291906001600160401b0384118385101762000258578160a09284926040968752833981010312620002545762000052816200026c565b62000060602083016200026c565b906200006e8484016200026c565b906200008b608062000083606087016200026c565b95016200026c565b6001600160a01b039490939085169182156200023d575f80546001600160a01b031981168517825588519488939290918416907f8be0079c531659141344cd1fd0a4f28419497f9722a3daafe3b4186f6b6457e09080a36001805516918215620001fb57508416918215620001b7578416918215620001745760a05260805260c0521660e05251611ae990816200028282396080518181816102b2015281816109b60152610aa4015260a051818181610228015281816114ea01526115cd015260c05181818161026d0152610fdc015260e0518181816106880152818161075901526109380152f35b6064865162461bcd60e51b815260206004820152602060248201527f556e69737761705633526f757465723a20494e56414c49445f464143544f52596044820152fd5b855162461bcd60e51b815260206004820152601f60248201527f556e69737761705633526f757465723a20494e56414c49445f51554f544552006044820152606490fd5b62461bcd60e51b815260206004820152601f60248201527f556e69737761705633526f757465723a20494e56414c49445f524f55544552006044820152606490fd5b8651631e4fbdf760e01b81525f6004820152602490fd5b5f80fd5b634e487b7160e01b5f52604160045260245ffd5b51906001600160a01b0382168203620002545756fe6080806040526004361015610012575f80fd5b5f90813560e01c908162c1520c146111325750806304fe3fcb14610f6d57806312009f2714610f1f57806320afb93b14610ea757806322377710146107885780634aa4a4fc14610743578063715018a6146106ea5780638da5cb5b146106c3578063938a8076146102e1578063c31c9c071461029c578063c45a015514610257578063c6bbd5a714610212578063ec4c259a146101415763f2fde38b146100b7575f80fd5b3461013e57602036600319011261013e576100d061117f565b6100d861135c565b6001600160a01b03908116908115610125575f54826001600160601b0360a01b8216175f55167f8be0079c531659141344cd1fd0a4f28419497f9722a3daafe3b4186f6b6457e05f80a380f35b604051631e4fbdf760e01b815260048101849052602490fd5b80fd5b503461013e57604036600319011261013e576004356001600160401b03811161020e5761017561017e913690600401611307565b6024359061158d565b939091604051936080850190855260209060808287015282518091528160a08701930190845b8181106101f15750505084820360408601528080855193848152019401925b8281106101d7578580868960608301520390f35b835163ffffffff16855293810193928101926001016101c3565b82516001600160a01b0316855293830193918301916001016101a4565b5080fd5b503461013e578060031936011261013e576040517f00000000000000000000000000000000000000000000000000000000000000006001600160a01b03168152602090f35b503461013e578060031936011261013e576040517f00000000000000000000000000000000000000000000000000000000000000006001600160a01b03168152602090f35b503461013e578060031936011261013e576040517f00000000000000000000000000000000000000000000000000000000000000006001600160a01b03168152602090f35b503461013e5760a036600319011261013e576102fb61117f565b6044356001600160a01b03811690036106bf5760643560ff811681036106bb576084356001600160401b0381116106b75761033a9036906004016112a1565b82906040519361034985611217565b6060855260606020860152606060408601525f60608601525f60808601525f60c08601525f60e086015260018060a01b031615610686575b60243560a0850152306101008501526040518060608101106001600160401b0360608301111761065e57606081016040526002815260403660208301376103c7816113f3565b6001600160a01b0384169052805160011015610672576001600160a01b03604435811660408381018290529185165f908152600260209081528382209282529190915220549062ffffff82166105b1575b5050600191846002935b60ff861685111561053c578782604051906020825280519261012060208401526101408301845180915260206101608501950190825b81811061051d57505050602082810151848603601f190160408601528051808752958201959101915b818110610502575050506104a682936040830151601f198583030160608601526111f2565b906060810151608084015260018060a01b0360808201511660a084015260a081015160c084015260018060a01b0360c08201511660e084015260e081015161010084015261010060018060a01b03910151166101208301520390f35b825162ffffff16865260209586019590920191600101610481565b82516001600160a01b0316875260209687019690920191600101610458565b835161054786611387565b116105a3576105948460ff9361059a9361056183516113c1565b9061057361056e8b611422565b6113c1565b916001600160a01b038916610587846113f3565b526001604435938a6117bb565b94611414565b93869150610422565b9360ff915061059a90611414565b6040516001600160601b0319808660601b16602083015262ffffff60e81b8460e81b16603483015260443560601b166037820152602b81528060608101106001600160401b0360608301111761065e576060810160405261061660a08801518261158d565b92915050606089015260e08801526040870152855262ffffff6040519161063c83611233565b600183526020368185013716610651826113f3565b5260208501525f80610418565b634e487b7160e01b5f52604160045260245ffd5b634e487b7160e01b5f52603260045260245ffd5b7f00000000000000000000000000000000000000000000000000000000000000006001600160a01b03169150610381565b8380fd5b8280fd5b5f80fd5b503461013e578060031936011261013e57546040516001600160a01b039091168152602090f35b503461013e578060031936011261013e5761070361135c565b5f80546001600160a01b0319811682556001600160a01b03167f8be0079c531659141344cd1fd0a4f28419497f9722a3daafe3b4186f6b6457e08280a380f35b503461013e578060031936011261013e576040517f00000000000000000000000000000000000000000000000000000000000000006001600160a01b03168152602090f35b506003199060803683011261013e57600435916001600160401b03831161020e5761012090833603011261013e57604051916107c383611217565b80600401356001600160401b0381116106bb576107e690600436918401016112a1565b835260248101356001600160401b0381116106bb57810190366023830112156106bb5760048201356108178161128a565b926108256040519485611269565b8184526024602085019260051b82010190368211610ea357602401915b818310610e83575050506020840191825260448101356001600160401b0381116106b7576108c89161087d6101049260043691840101611307565b604087015260648101356060870152610898608482016111ab565b608087015260a481013560a08701526108b360c482016111ab565b60c087015260e481013560e0870152016111ab565b6101008401526108d6611195565b90600260015414610e715760026001554260643510610e2c57600284515110610de7578351515f19810191908211610dd357515103610d83576001600160a01b03811615610d335760c08301516001600160a01b0316610c65573415610c11577f00000000000000000000000000000000000000000000000000000000000000006001600160a01b0316803b156106bb57604051630d0e30db60e41b8152838160048134865af18015610c0657610bd7575b503460a085015260c08401525b60c083015160a084015160405163095ea7b360e01b81526001600160a01b037f000000000000000000000000000000000000000000000000000000000000000081166004830152602482019290925291602091839160449183918891165af18015610bcc57610b9d575b50604083015160a08401519060405190608082018281106001600160401b0382111761065e576040528152602081019260018060a01b03168352604081019182526020610a7960608301926044358452604051938492839263b858183f60e01b8452856004850152516080602485015260a48401906111f2565b87516001600160a01b03908116604485015287516064850152915160848401529190910390829088907f0000000000000000000000000000000000000000000000000000000000000000165af1938415610b91578094610b3a575b825160c08701518551604080519384526001600160a01b03928316602085810191909152908401899052911660608301529086907f13a15d3632118ff41cf407aefa81ad1e586f67492bbf7fa01fb5dea6b07ad72290608090a160018055604051908152f35b909193506020823d602011610b89575b81610b5760209383611269565b8101031261013e57505191837f13a15d3632118ff41cf407aefa81ad1e586f67492bbf7fa01fb5dea6b07ad722610ad4565b3d9150610b4a565b604051903d90823e3d90fd5b610bbe9060203d602011610bc5575b610bb68183611269565b8101906113a9565b505f6109ff565b503d610bac565b6040513d85823e3d90fd5b6001600160401b038194929411610bf257604052915f610988565b634e487b7160e01b82526041600452602482fd5b6040513d86823e3d90fd5b60405162461bcd60e51b815260206004820152602660248201527f556e69737761705633526f757465723a20494e53554646494349454e545f45546044820152651217d4d1539560d21b6064820152608490fd5b60a083015115610cdb5781602060018060a01b0360c086015116606460a087015160405194859384926323b872dd60e01b845233600485015230602485015260448401525af18015610bcc57610cbc575b50610995565b610cd49060203d602011610bc557610bb68183611269565b505f610cb6565b60405162461bcd60e51b815260206004820152602a60248201527f556e69737761705633526f757465723a20494e53554646494349454e545f494e60448201526914155517d05353d5539560b21b6064820152608490fd5b60405162461bcd60e51b815260206004820152602260248201527f556e69737761705633526f757465723a20494e56414c49445f52454349504945604482015261139560f21b6064820152608490fd5b60405162461bcd60e51b815260206004820152602260248201527f556e69737761705633526f757465723a20494e56414c49445f4645455f544952604482015261455360f01b6064820152608490fd5b634e487b7160e01b84526011600452602484fd5b60405162461bcd60e51b815260206004820152601d60248201527f556e69737761705633526f757465723a20494e56414c49445f504154480000006044820152606490fd5b60405162461bcd60e51b815260206004820152601860248201527f556e69737761705633526f757465723a204558504952454400000000000000006044820152606490fd5b604051633ee5aeb560e01b8152600490fd5b823562ffffff81168103610e9f57815260209283019201610842565b8680fd5b8580fd5b503461013e5760a036600319011261013e57610ec161117f565b90610eca611195565b91610ed36111bf565b608435936001600160a01b0393848616860361013e57509363ffffffff92610f019260809660643592611455565b93929490916040519586521660208501521660408301526060820152f35b503461013e578060031936011261013e57610f69604051610f3f81611233565b6009815268556e6973776170563360b81b60208201526040519182916020835260208301906111f2565b0390f35b503461013e57606036600319011261013e57610f8761117f565b90610f90611195565b610f986111bf565b92610fa161135c565b604051630b4c774160e11b81526001600160a01b038281166004830152838116602483015262ffffff861660448301526020959186816064817f000000000000000000000000000000000000000000000000000000000000000086165afa9081156111275790829187916110ed575b5016156110a857828116808652600280885260408088209387168852928852828720805462ffffff1990811662ffffff9690961695861790915590885282872091875296528085208054909616821790955584516001600160a01b03928316815291909216602082015292830152907f95826e4054d946f6d853d8dba444a92ae9bd013e502250f4b58c4abd69437f4190606090a180f35b60405162461bcd60e51b815260048101879052601f60248201527f556e69737761705633526f757465723a20504f4f4c5f4e4f545f4558495354006044820152606490fd5b809250888092503d8311611120575b6111068183611269565b81010312610ea357518181168103610ea35781905f611010565b503d6110fc565b6040513d88823e3d90fd5b90503461020e57604036600319011261020e5762ffffff604060209361115661117f565b61115e611195565b6001600160a01b039182168352600287528383209116825285522054168152f35b600435906001600160a01b03821682036106bf57565b602435906001600160a01b03821682036106bf57565b35906001600160a01b03821682036106bf57565b6044359062ffffff821682036106bf57565b5f5b8381106111e25750505f910152565b81810151838201526020016111d3565b9060209161120b815180928185528580860191016111d1565b601f01601f1916010190565b61012081019081106001600160401b0382111761065e57604052565b604081019081106001600160401b0382111761065e57604052565b602081019081106001600160401b0382111761065e57604052565b90601f801991011681019081106001600160401b0382111761065e57604052565b6001600160401b03811161065e5760051b60200190565b81601f820112156106bf578035916112b88361128a565b926112c66040519485611269565b808452602092838086019260051b8201019283116106bf578301905b8282106112f0575050505090565b8380916112fc846111ab565b8152019101906112e2565b81601f820112156106bf578035906001600160401b03821161065e576040519261133b601f8401601f191660200185611269565b828452602083830101116106bf57815f926020809301838601378301015290565b5f546001600160a01b0316330361136f57565b60405163118cdaa760e01b8152336004820152602490fd5b5f1981019190821161139557565b634e487b7160e01b5f52601160045260245ffd5b908160209103126106bf575180151581036106bf5790565b906113cb8261128a565b6113d86040519182611269565b82815280926113e9601f199161128a565b0190602036910137565b8051156106725760200190565b80518210156106725760209160051b010190565b5f1981146113955760010190565b906001820180921161139557565b51906001600160a01b03821682036106bf57565b519063ffffffff821682036106bf57565b9194939092946040519360a085018581106001600160401b0382111761065e5760405260018060a01b03968780951686528460208701921682526040860190815284606087019262ffffff80951684528160808901961686528160405198636352813560e11b8a525116600489015251166024870152516044860152511660648401525116608482015260808160a4815f80977f0000000000000000000000000000000000000000000000000000000000000000165af190839184928186938793611534575b5061152b57505050508180918190565b94509192909190565b9450925050506080823d8211611585575b8161155260809383611269565b810103126106b75781519061156960208401611430565b606061157760408601611444565b94015192909392915f61151b565b3d9150611545565b6115b690929192604093845192839263cdca175360e01b845286600485015260448401906111f2565b906024830152815f93849203818360018060a01b037f0000000000000000000000000000000000000000000000000000000000000000165af190829183928185938693611638575b5061162f57505050508251926116138461124e565b81845251916116218361124e565b818352813681378193929190565b95509193909250565b9350935050503d8084833e61164d8183611269565b8101916080828403126106b75781519160209081810151916001600160401b03928381116117425782019286601f850112156117425783519361168f8561128a565b9461169c8c519687611269565b808652838087019160051b8301019189831161175e5784809101915b8383106117465750505050898301519081116117425782019580601f880112156117425786516116e78161128a565b976116f48c51998a611269565b81895283808a019260051b82010192831161173e578301905b82821061172757505050506060015192909392915f6115fe565b83809161173384611444565b81520191019061170d565b8980fd5b8780fd5b819061175184611430565b81520191019084906116b8565b8a80fd5b60405161176e8161124e565b5f8152905f368137565b60206117b991939293604051948161179987935180928680870191016111d1565b82016117ad825180938680850191016111d1565b01038085520183611269565b565b90979697959391959492946117d08151611387565b87146118b4575f9687935b8a518510156118a85786868c928a6118036117f68a87611400565b516001600160a01b031690565b6001600160a01b038981169116148015611895575b6118865790600161182f8a61186a97969594611400565b526118596118406117f68b87611400565b61184a888a611400565b6001600160a01b039091169052565b8b61186387611422565b888a6117bb565b61188090948961187a828b611400565b52611414565b936117db565b50969150506118809150611414565b506118a08982611400565b511515611818565b99505050505050505050565b61184a9298508095506118ca9497969150611400565b6118d481516113c1565b916118e261056e8351611387565b906118eb611762565b935f945b8451861015611a5b576119126119086117f68888611400565b61184a8885611400565b8515611a205761197961197061194f6119366117f66119308b611387565b8a611400565b6001600160a01b03165f90815260026020526040902090565b61195c6117f68a8a611400565b60018060a01b03165f5260205260405f2090565b5462ffffff1690565b9062ffffff821615611a0b57816119ff916119a7611a059461199d6119308c611387565b9062ffffff169052565b6119fa6119b76117f68b8b611400565b60405160e89490941b6001600160e81b031916602085015260601b6bffffffffffffffffffffffff1916602384015282603781015b03601f198101845283611269565b611778565b95611414565b946118ef565b5050509492505050611a1d9150611422565b90565b6119ff6119ec611a05926119fa611a3a6117f68b8b611400565b604051938491602083016014916001600160601b03199060601b1681520190565b90929350611a1d9591969450611a7560a08301518261158d565b915050606084959295019485518111611a95575b50505050505050611422565b6020955260e08401528252604082015201525f808080808080611a8956fea2646970667358221220c9ce0e231a04e2a5475038aac5b6cfff29a2b4a1f2e0ff4c3f896738900b4b4164736f6c63430008140033",
  "linkReferences": {},
  "deployedLinkReferences": {},
  "immutableReferences": {
    "830": [
      {
        "length": 32,
        "start": 690
      },
      {
        "length": 32,
        "start": 2486
      },
      {
        "length": 32,
        "start": 2724
      }
    ],
    "833": [
      {
        "length": 32,
        "start": 552
      },
      {
        "length": 32,
        "start": 5354
      },
      {
        "length": 32,
        "start": 5581
      }
    ],
    "836": [
      {
        "length": 32,
        "start": 621
      },
      {
        "length": 32,
        "start": 4060
      }
    ],
    "839": [
      {
        "length": 32,
        "start": 1672
      },
      {
        "length": 32,
        "start": 1881
      },
      {
        "length": 32,
        "start": 2360
      }
    ]
  },
  "inputSourceName": "project/contracts/dex/uniswap/UniswapV3Router.sol",
  "buildInfoId": "solc-0_8_20-26ed8d99906344515d50c3370f9c771a8055fca7"
}